:020000040801F1
:10020000B8690020DD030108654001088B39010849
:10021000CD3D0108ED160108A763010800000000AC
:10022000000000000000000000000000450301087D
:10023000CD1701080000000089030108295D0108AD
:10024000F7030108F7030108F7030108F7030108A2
:10025000F7030108F7030108F7030108CF170108A6
:10026000F7030108F7030108F7030108F703010882
:10027000F7030108F7030108F7030108F703010872
:10028000F7030108F7030108F7030108F703010862
:10029000F7030108F7030108F7030108F703010852
:1002A000F7030108F7030108F7030108F703010842
:1002B000C15D0108F7030108CD5D0108F7030108DE
:1002C000F7030108F7030108F7030108F703010822
:1002D000F7030108E5620108F1620108FD62010807
:1002E000F7030108F7030108F7030108F703010802
:1002F000F7030108F7030108F7030108F7030108F2
:10030000F7030108F7030108F7030108F7030108E1
:10031000F7030108F7030108F7030108F7030108D1
:10032000F7030108F7030108F7030108F7030108C1
:10033000DFF80CD000F0E2FD00480047E58E010830
:10034000B8690020224B19680868B0E8F00F80F304
:100350000988BFF36F8F4FF0000080F311884EF0D3
:100360000D0E70470000000006480068006880F32A
:10037000088862B661B6BFF34F8FBFF36F8F00DF9F
:1003800000BF00BF08ED00E0EFF30980BFF36F8FFF
:100390000F4B1A6820E9F00F106008B54FF05000BD
:1003A00080F31188BFF34F8FBFF36F8F0AF00EFBFE
:1003B0004FF0000080F31188BDE808401968086814
:1003C000B0E8F00F80F30988BFF36F8F704700BF6C
:1003D00030000020EFF3058070470000064880479A
:1003E00006480047FEE7FEE7FEE7FEE7FEE7FEE71A
:1003F000FEE7FEE7FEE7FEE7BD5D01083103010809
:10040000202A04DB203A21FA02F00021704721FA69
:1004100002F3D040C2F120029140084319467047D0
:1004200040EA01039B0703D009E008C9121F08C076
:10043000042AFAD203E011F8013B00F8013B521EF6
:10044000F9D27047D2B201E000F8012B491EFBD26D
:1004500070470022F6E710B513460A4604461946CF
:10046000FFF7F0FF204610BDCAB2401E10F8011F72
:100470008A4202D00029F9D100207047421C10F8AE
:10048000011B0029FBD1801A704710B5002200E043
:10049000521C835C8C5CA34201D1002BF8D1D8B2F2
:1004A000E1B2401A10BD30B505460020034600E019
:1004B0005B1C934205D2EC5CC85C201A01D1002C75
:1004C000F6D130BD70B5064605F0ACFF04680546B0
:1004D0000A220021304600F061FB2C6070BDF0B4B0
:1004E00080EA0102D40F4200B2EB410F02D2024671
:1004F000084611464A0042D0C30DDDB2C1F3C752CF
:10050000AD1A202D35DAC1F3160141F4000204B111
:100510005242C5F1200602FA06F12A411044B3EB1B
:10052000D05F23D0C4B1012DA0EBC35009DCF0BCD7
:100530004FF0004202EAC352DBB200F5000000F0C7
:100540006EBB400000F1807000EBC350A0F18070E2
:1005500040EAD170490009E0490841EAC071A0EBC6
:10056000C35000F50000400800EBC350F0BC00F0A1
:100570004DBB6142012202EB4101001BF6E7F0BCDA
:10058000704781F00041AAE780F00040A7E780EAC9
:10059000010210B502F00043400022D04A001FD0F3
:1005A000010E01EB1261C0F35600C2F3560240F493
:1005B000000042F40002A0FB022000047F39140472
:1005C00000D0401C50EA124001D44000491EC2B283
:1005D0000C0604EBD010401C4008802A02D003E037
:1005E000002010BD20F00100002900DA002018438F
:1005F00010BD30B480EA010202F0004530F0004244
:1006000021F0004013D090B1C30DD40DC2F31601F8
:10061000C0F31600E41A41F4000140F400027D34F6
:10062000914201D3641C00E04900002C02DA30BC86
:10063000002070474FF400000023914201D3891A33
:10064000034340084FEA4101F7D151B1914202D131
:100650004FF0004105E002D24FF0010101E06FF0E0
:10066000010103EBC450284430BC00F0CFBA420073
:1006700005D0C0F3C7525242914201DC00207047BE
:1006800000EBC15070472DE9FE4F804681EA030020
:10069000C00F0C46009021F0004123F00045B8EB5C
:1006A0000200A94105D24046214690461C460B4611
:1006B000024623F00040104347D0270DC7F30A003D
:1006C000C3F30A510290401A019040286BDAC3F339
:1006D000130040F4801B0098924620B10023D2EB17
:1006E000030A63EB0B0B01985946C0F140025046D8
:1006F00000F0E5F906460D4650465946019A00F0CD
:10070000EDF910EB08006141002487EA115284EAF8
:10071000E7731A4340D0009A62B3019A012A4FEA64
:10072000075215DC001B61EB02014FF0004202EAA8
:100730000752CDE90042001C41F5801132462B469C
:1007400000F0AAFA03B0BDE8F08F40462146F9E771
:10075000001B61EB0201001C41F5801300185B4196
:100760002018A2F5001747EB030140EAD570B6192F
:100770006D4111E06D084FEA360645EAC0754FEA53
:100780000752001B61EB0201001C41F58011490872
:100790004FEA30000019514132462B4603B0BDE804
:1007A000F04F00F06ABA0098012240000023D0EB1D
:1007B000020263EBE073009821464FEAE074B8EB65
:1007C000000061EB0401E9E783F000435BE781F09F
:1007D000004158E72DE9FE4F81EA030404F000448C
:1007E00021F0004100944FF0000B23F0004350EA49
:1007F00001045ED052EA03045BD0C3F30A54C1F390
:100800000A552C44A4F2F3340194A0FB0254C1F322
:10081000130141F48011C3F3130343F4801301FB6C
:10082000024400FB034E840A970A44EA815447EAD3
:100830008357A4FB076802958D0A05FB07854FEADD
:10084000932C04FB0C542705029D4FEA065847EAF7
:100850001637B5EB08056EEB070C870E920E47EACC
:10086000811742EA8312A7FB0201B6EB0B0164EB8E
:1008700000042B0D43EA0C335E1844EB1C50DA469F
:100880005146E7FB0201C5F313044FEA0B3343EA79
:1008900014534FEA0432019C43EA0603A4F10C040A
:1008A0000294009CCDE900B400F0F6F903B0BDE875
:1008B000F08F00200146F9E7C10F80EAE07008449C
:1008C000CA079623002100F0AAB9962300221146F8
:1008D00000F0A5B90EB540F2334102910021CDE9F7
:1008E00000110A460B4600F0D7F903B000BD00F036
:1008F000004220F00040C10DC0F3160040F400009B
:100900007F2901DA00207047962903DCC1F19601A6
:10091000C84001E096398840002AF4D04042704730
:1009200020F00040C10DC0F3160040F400007F2904
:1009300001DA00207047962903DCC1F19601C84016
:100940007047963988407047C1F30A5210B5C1F319
:10095000130140F2FF3341F480119A4201DA002082
:1009600010BD40F233439A42A2F2334203DC5242BA
:10097000FFF746FD10BD904010BD00F0004230F082
:1009800000400AD0C10D01F56071C0F3160042EAC3
:100990000151C208400711437047002001467047CB
:1009A00030B5041E71F1000404DB4FF000444042F6
:1009B00064EB0101141E73F1000405DB1C464FF0CB
:1009C0000043524263EB0403994208BF904230BD9A
:1009D00001F0004330B421F0004150EA010206D09A
:1009E0000A0DA2F56072C1F31301002A02DC30BCCB
:1009F00000207047440F44EAC104C100E01830BC35
:100A000000EBC25000F002B9002801DBC0F1004049
:100A1000002901DBC1F1004181427047002801DB60
:100A2000C0F10040002901DBC1F10041884270475C
:100A300030B50B46014600202022012409E021FAAE
:100A400002F59D4205D303FA02F5491B04FA02F5AB
:100A50002844151EA2F10102F1DC30BD2DE9F05F42
:100A60000546002092469B4688460646814640241D
:100A70001BE02846414647462246FFF7C1FC534645
:100A80005A46C01A914110D311461846224600F02A
:100A900016F82D1A67EB01084F4622460120002167
:100AA00000F00DF817EB00094E41201EA4F10104DF
:100AB000DFDC484631462A464346BDE8F09F202AFF
:100AC00004DB203A00FA02F1002070479140C2F1A5
:100AD000200320FA03F3194390407047202A06DBD5
:100AE000CB17203A41FA02F043EAE07306E041FAFC
:100AF00002F3D040C2F120029140084319467047EA
:100B00000FB4002300B589B00CA900910B996FF0C8
:100B10000042CB601E4B06931E4B07930423CDE986
:100B200001321D4A089202466B46002000F09AFAF4
:100B300009B05DF814FB70B586B006464FF0FF3083
:100B40000091CDE90101002015460C460490324683
:100B5000694604A8FFF7D4FF02460498211825B17E
:100B600008B1084600E020462860049800280DD00F
:100B7000002A02DD0098884208D0081B0094CDE9C5
:100B800001043246694604A8FFF7BAFF06B070BDFB
:100B90009D120108BB120108290F01082DE9F04739
:100BA00091460F4680460446002614F8015B2DB19D
:100BB00000F0B6F90068405DC007F6D12B2D02D0D9
:100BC0002D2D18D0641E4A463946204600F086FB7B
:100BD00027B13968A14201D1C7F8008071054FF0F3
:100BE00002040BD54042002803DD05F01BFC046025
:100BF000A007BDE8F08746F48066E4E70028F8DA4D
:100C000005F010FC04606FF00040F2E70029A8BF77
:100C10007047401C490008BF20F00100704710B425
:100C2000B0FA80FC00FA0CF050EA010404BF10BCDA
:100C3000704749B1CCF1200421FA04F411FA0CF107
:100C400018BF012121430843A3EB0C01CB1D4FEA40
:100C500000614FEA102042BF002010BC704700EB3B
:100C6000C35010440029A4BF10BC7047401C490069
:100C700008BF20F0010010BC704710B5141E73F1BE
:100C8000000408DA401C41F1000192185B411A434C
:100C900001D120F0010010BD2DE9F04D92469B4698
:100CA00011B1B1FA81F202E0B0FA80F2203290463E
:100CB000FFF705FF04460F4640EA0A0041EA0B0130
:100CC00053465A46084313D0114653EA010019D03F
:100CD000C8F140025046FFF793FB05460E465046CA
:100CE00059464246FFF7EBFE084305D0012004E0D9
:100CF00020463946BDE8F08D0020054346EAE076FF
:100D00002C4337430A986305E40AA0EB080000224D
:100D1000FD0A44EA47540A3002D500200146E9E7BB
:100D2000010510196941DDE9084500196941BDE86F
:100D3000F04DA2E72DE9F04D81EA030404F0004BE9
:100D400021F0004514464FF0000A23F0004150EA1C
:100D5000050220D054EA01021DD0C5F30A5702460D
:100D6000C5F31303C1F31300C1F30A5640F4801511
:100D700043F48013A7EB0608101BD64608F2FD3893
:100D800073EB050002D308F1010801E092185B4102
:100D9000B8F1000F03DA00200146BDE8F08D002015
:100DA0004FF48011064684460EE0171B73EB0507CF
:100DB00005D3121B63EB050306434CEA010C4908FB
:100DC0004FEA300092185B4150EA0107EDD152EA38
:100DD000030012D082EA040083EA0501084305D02B
:100DE000101BAB4106D20122002306E000224FF087
:100DF000004302E06FF0010253101AEB06004CEBC7
:100E0000085110EB0A0041EB0B01BDE8F04DFFF774
:100E100034BF00002DE9F041054621F000400C46AA
:100E2000284309D0C4F30A5040F23341884205DD1B
:100E300028462146BDE8F0812846FBE740F2FE3116
:100E4000884210DC0CDB4FEA043040EA155050EACF
:100E5000053105D0104804F0004101430020E9E7C6
:100E600000200146E6E7A0F233404642C6F14002C8
:100E700028462146FFF723FE074688462846214696
:100E80003246FFF7BDFA43463A46FFF7F6FE3246D2
:100E9000BDE8F041FFF713BE0000F03FC1F30A5276
:100EA000C1F3130140F2FF3341F480119A4202DA98
:100EB00000200146704740F233439A42A2F2334287
:100EC00002DC5242FFF79CBAFFF7F9BD30B5041EB1
:100ED00071F1000404DB4FF00044404264EB010177
:100EE000141E73F1000405DB1C464FF00043524210
:100EF00063EB04038B4208BF824230BD064C074DB2
:100F000006E0E06840F0010394E8070098471034D9
:100F1000AC42F6D3FFF710FAE4C1010804C201089D
:100F200000487047F0C0010810B50446FFF7F8FF0D
:100F30000068005D00F0010010BD00002DE9FF4FCA
:100F4000087883B09946FF2805D0491C2D2804D085
:100F50000024002008E000200BE00124F9E700EB6A
:100F6000800003EB4000491C0B78FF2BF7D104B144
:100F7000404200230293147819461D462D2C01D0BF
:100F80002B2C04D1521C2D2C13D000240294AA46E1
:100F90001478FF2C0FD00A25A3FB057801FB0581EF
:100FA0004FF0000C03FB0C11521CE3194AEB01013A
:100FB000EEE70124EAE7814453EA010002D019F583
:100FC000C87F06DA03980021C0E9001107B0BDE828
:100FD000F08F0025AE4E2F46DFF8B882184600F09D
:100FE000DAF9CDE90001B9F1000002DAC9F1000433
:100FF00000E004460023A74A1AEB030B42EB045A15
:1010000012E0E00707D02A46334638464146FFF74C
:10101000E1FB074688462A46334610461946FFF745
:10102000D9FB05460E466410002CEAD1DDE900012B
:10103000B9F1000F5A46534606DAFFF77BFE3A46EF
:101040004346FFF777FE05E0FFF7C4FB3A46434609
:10105000FFF7C0FB029A0AB181F00041039AC2E98E
:101060000001B3E72DE9FF4F1F468DB0D7E90146D8
:101070004FF0FF382E2045464FF000090B90B9691C
:101080006D1C0E988847396A824688470028F6D139
:10109000BAF1FF3F0AD024F4D064002E11DDBAF17A
:1010A0002B0F08D0BAF12D0F0BD102E0404611B042
:1010B0008DE744F48064B9696D1C0E9888478246B8
:1010C000761E6946600501D52D2000E02B208DF8A5
:1010D000000001F1010B0DF1200809E0B9696D1C58
:1010E0000E98884782460F9844F40074761E056077
:1010F000002E02DDBAF1300FF0D00B998A453ED1B7
:1011000044F0800406E00F99681CA9F1010944F439
:1011100000740860B9696D1C761E0E988847824677
:101120003028F0D02BE00B998A4505D1200603D456
:1011300044F08004761E18E0504605F055FA08B3D6
:101140000DF11301761E44F400748B4508D2AAF108
:1011500030000BF8010B200607D5A9F1010003E0D0
:10116000200602D409F101008146A00502D50F999D
:10117000681C0860B9696D1C0E9888478246002E6D
:10118000D1DC53E0002E51DDBAF1650F02D0BAF187
:10119000450F4BD1A00549D5B9696D1C24F44074A5
:1011A000761E0E9888478246002E0CDD2B2804D030
:1011B000BAF12D0F07D144F48074B9696D1C0E98F3
:1011C00088478246761EE00501D52D2100E02B21BF
:1011D00008F8011BCDF82C8021E00DF12901761EC5
:1011E00044F4007488450CD2AAF1300010F0FF00DE
:1011F00088F8000002D10B99884509D908F1010847
:1012000006E0E00501D5244801E042F20F70814676
:10121000B9696D1C0E98884782460F980560002EAC
:1012200004DD504605F0E0F90028D6D1F9690E98A2
:101230008847FF208BF8000088F800000020069007
:1012400007904B466A4608A906A8FFF777FEA00557
:1012500002D46FF001002AE714F0240F0AD0E0074F
:1012600014D1DDE906123868031D3B600068C0E94F
:1012700000120BE0DDE90601FFF7AAFB0146E007DB
:1012800004D13868021D3A600068016028460EE704
:10129000000014400000F03FF1D8FFFF426842B167
:1012A000016811F8013B23B1521EC0E90012184633
:1012B00070470121C160881E704742685AB1C368F7
:1012C000016843B983688B4205D0491E521CC0E9AE
:1012D0000012002070474FF0FF3070472DE9F05F9B
:1012E00082460078002715468B460AF10104B9466C
:1012F000302801D09DB113E014F8010B01277828A4
:1013000003D0582801D045B10AE00DB1102D07D106
:101310000027102514F8010B02E0082500E00A253B
:101320000026B0460EE005FB080005FB06F101278C
:1013300001EB10461FFA80F8B6F5803F00D3B9469E
:1013400014F8010B294600F018F80028EBDABBF17D
:10135000000F05D00FB1641E00E05446CBF80040EA
:10136000B9F1000F06D005F05DF802210160C81E3A
:10137000BDE8F09F48EA0640FAE73A2800D2303844
:1013800020F02002412A01D3A2F13700884201D384
:101390004FF0FF3070470EB540F233420292002208
:1013A000CDE900221346FFF777FC03B000BD70B50E
:1013B0008C1810F8015B15F0070301D110F8013B00
:1013C0002A1106D110F8012B03E010F8016B01F887
:1013D000016B5B1EF9D12B0705D40023521E0DD4DF
:1013E00001F8013BFAE710F8013BCB1A921C03E02D
:1013F00013F8015B01F8015B521EF9D5A142D8D365
:10140000002070BD70B5044600688168C943C907F3
:1014100017D1816821F00101816000F0BBFF054612
:101420000AE000BF00F0B6FF401B022804D9206884
:101430008068C043C00706D020688068C043C007EA
:10144000F0D0002070BDA06A40F01000A062E06AF9
:1014500040F00100E062012070BD0000F8B50026F8
:101460000446009600688168C943C9072DD0816889
:1014700041F001018160164816490068B0FBF1F0A7
:1014800000E0401E00900028FBD100F083FF0546DD
:1014900016E000BF00F07EFF401B022810D9206834
:1014A0008068C043C0070BD0A06A40F01000A06263
:1014B000E06A40F00100E06284F824600120F8BD99
:1014C00020688068C043C007E4D10020F8BD000058
:1014D0002C00002040420F0010B5282007F0E0FD4E
:1014E00002F01DFD712002F0FDFC02F0AFFC28BBF4
:1014F00002F0C4FC0446012002F0E0FC02F027FDEB
:10150000200701D5002010BD02F009FD702002F077
:10151000E9FC02F09BFC88B9BE2002F0E3FC02F07B
:1015200095FC58B9082002F0DDFC02F08FFC28B9C8
:10153000002002F0D7FC02F089FC18B102F007FD90
:10154000012010BD02F003FD0A2007F0A9FDD9E734
:101550002DE9FC410D46064602F0E1FC702002F048
:10156000C1FC02F073FCF0B9AC2002F0BBFC02F04D
:101570006DFCC0B9332002F0B5FC02F067FC90B9F5
:10158000002002F0AFFC02F061FC60B902F0DFFC69
:10159000502007F085FD02F0C2FC712002F0A2FC91
:1015A00002F054FC20B102F0D2FC0120BDE8FC8125
:1015B00002F064FC000606D5012002F07FFC02F078
:1015C000C6FC0220F2E7002002F078FC00246F46FF
:1015D00002F054FC3855042C01DA002000E0012010
:1015E00002F06CFC641C052CF2DB02F0B0FC9DF8F0
:1015F00000009DF80110000340EA01109DF8021060
:101600009DF8032040EA11100907090B41EA022462
:101610009DF804100C43FFF758F96FF01307394693
:10162000FFF725F80949FEF7B2FF28602046FFF7CB
:101630004CF93946FFF71BF80549FEF7A8FF0549A5
:10164000FEF79FFF30600020B0E700000000C842B6
:10165000000048430000484210B5012000F034F873
:101660000A2007F01DFD102000F02EF8BDE8104004
:10167000B42007F015BD000070B5044602F04FFC21
:10168000472002F02FFC02F0E1FB18B102F05FFCF2
:10169000012070BD02F0F2FB0546002002F00EFCB6
:1016A00002F0ECFB0646012002F008FC02F04FFCC1
:1016B00046EA0520FFF709F90249FEF79AFF206084
:1016C000002070BD9A99993F10B5044602F027FC9E
:1016D000462002F007FC02F0B9FB204602F002FCB3
:1016E00002F0B4FBBDE8104002F031BCFEE70000A0
:1016F00002461021014800F04AB90000000C0140E8
:1017000070B505464FF6FF7000224AF201040EE064
:10171000AB5C58400023C60702D084EA500000E0CA
:1017200040085B1CDBB2082BF5D3521C92B28A42F4
:10173000EED370BD01220249024802F09BB80000BE
:10174000150100204C03002090B01E4D00266F466E
:10175000287888B9688878B107F0C6FC6968401AAB
:10176000C82809D308F018FF287818B9688808B184
:101770000120287008F030FF08F00EFF287858B1DB
:101780006A8811496846FEF74BFE6C882E706E80A1
:1017900008F022FF3CB911E008F01EFF0EE0641EC5
:1017A0002404240C06D0381910F8010C0A28F6D0AD
:1017B0000D28F4D03E55684605F076FB0A2007F068
:1017C0006FFCC5E714010020405C00207047022038
:1017D00000F0CEBC72B6FEE7002200F001B80000B7
:1017E00030B50E4B054601205C7A012C15D8587A8D
:1017F00000241C54587A03EB800045605D7A03F1A5
:1018000008002A54587A421C5A72303008703A2024
:1018100048702F208870CC70002030BDA861002057
:1018200006490020C8610648016941F004010161D0
:10183000016941F04001016170470000700400201F
:1018400000200240064A0021D16106490A6942F09F
:1018500002020A614861086940F04000086170476F
:101860007004002000200240044B0022DA61044A88
:10187000136943F001031361018070477004002075
:101880000020024014480022C168CB06134904D549
:10189000CA6942F00202CA611022C3685B0705D51B
:1018A000CB6943F00103CB6142F00402C369DB075B
:1018B00007D0CB6943F00403CB61C16921F001017A
:1018C000C161A2F58071013901D0C2607047C16960
:1018D00021F00101C1617047002002407004002026
:1018E00070B5054600F056FD0646114C09E0681C2F
:1018F00007D025B100F04EFD801BA84201D903207E
:1019000070BDE068C007F2D1E068800601D52020F4
:10191000E060E068C00605D4E069C00702D1E06875
:10192000400703D5FFF7AEFF012070BD002070BD5A
:1019300000200240024908700146002002F0F2BF78
:10194000400100200148007870470000400100205D
:1019500001484088704700004001002010B500F0A9
:1019600071FA06498A884860821AC2EB02104FF663
:10197000FF7202EAC000488010BD00004001002054
:1019800010B500F0FDFC012800D0002010BD02B110
:10199000012200F0FABC0000F8B50024009490F891
:1019A00024202546012A12D0012280F824204A68EA
:1019B0001F23072A0DD20668776B521E02EB8202A4
:1019C00093409F430B6893401F43776319E00220C5
:1019D000F8BD06680D2A0AD2376BD21F02EB8202CD
:1019E00093409F430B6893401F43376309E0F76AB6
:1019F0000D3A02EB820293409F430B6893401F43D2
:101A0000F7620A68072306680A2A0AD3F7680A3ABF
:101A100002EB420293409F438B6893401F43F76061
:101A200008E0376902EB420293409F438B68934082
:101A30001F4337610A68102A01D0112A20D1124BA6
:101A400002689A4217D193681B0219D4936843F431
:101A5000000393600968102912D10C490C4A0968E7
:101A6000B1FBF2F101EB8101490000E0491E009158
:101A70000029FBD104E0816A41F020018162012448
:101A800080F824502046F8BD002401402C0000209E
:101A900040420F000068C06C704700002DE9F04123
:101AA00004004FF000057FD0A06A002628B9E66246
:101AB00084F82460204600F081F82046FFF7A2FC5D
:101AC000A16AC90600D420B1A06A40F01000A0624B
:101AD0006AE0A16A21F4885141F00201A162334910
:101AE00023688B42E16904D1B1F5402F01D14FF455
:101AF0000021277B4FF4807C41EA470261680A435A
:101B0000A168614508D0012906D0002194F814E0AD
:101B1000BEF1010F02D00AE06146F7E7C7B1A76A3C
:101B200047F02007A762E76A47F00107E7625F68AE
:101B300027F469470F435F60236899681C4F394059
:101B400011439960A16861450BD0012909D00CE0CF
:101B5000DFF860E0A7690EEB47370F4347F40061F9
:101B6000E5E7218A0D05A5F580152168CB6A23F4E8
:101B700070032B43CB62216889680F4B1940914257
:101B800008D1E662A16A21F0020141F00101A162DF
:101B9000BDE8F081A06A20F0020040F01000A062D1
:101BA000E06A40F00100E0620120F1E7003C014002
:101BB000FDF7E1FF00E0FFFFFE0E1FFF00B585B05F
:101BC0000021009101910291039100680E49884221
:101BD00018D10E48816941F400718161816901F475
:101BE00000710491816941F0040181618069694655
:101BF00000F00400049002200090032001900448AB
:101C000000F0C2FA05B000BD0024014000100240FF
:101C1000000801402DE9F84300270D4604460097CF
:101C200000F0B8FB804620688168C90508D5A06A25
:101C300040F02000A06284F824700120BDE8F88301
:101C40004168C90503D4C06A10F4700F2AD002207D
:101C500000F070FC3B490968B1FBF0F620680369AD
:101C600039490B424FEA61014FEAA1121FD1C36803
:101C70004FEA611C13EA0C0F19D103690B4225D1FD
:101C8000C068104222D1142023E0681C0AD02DB174
:101C900000F080FBA0EB0800A84203D92068006890
:101CA000800725D5206800688007EED52DE0036900
:101CB0000B4202D1C168114206D0026923490A428F
:101CC00006D1C068084203D1542002E0292000E078
:101CD000FC204643009816E0681C11D02DB100F09E
:101CE00059FBA0EB0800A8420AD90098B04207D2DD
:101CF000A06A40F00400A06284F8247003209DE7ED
:101D00000098401C0090B042E6D321686FF01200AA
:101D10000860A06A40F40070A06220688068C0F388
:101D2000424007280CD1207B50B9A06A20F4807073
:101D3000A062A06AC00403D4A06A40F00100A062BF
:101D400000207BE72C0000202449922449922400A3
:101D500070B5044690F8240001280DD0012084F8C5
:101D600024002046FFF77AFB02004FF0000005D068
:101D700084F82400104670BD022070BDA16A40F2B4
:101D80000123994341F48071A1621F4D23681F49CB
:101D9000AB4218D10E6816F4702F14D0A66A46F420
:101DA0008016A6620E68760505D5A66A26F400564A
:101DB00046F48056A662A66AF6040AD5E66A26F0BC
:101DC0000606E66206E0A66A26F48016A6625E684B
:101DD000E9E7E06284F824006FF0020018602068F0
:101DE0008368C3F34243072B05D1A84208D1096891
:101DF00011F4702F04D0816841F480118160B9E73B
:101E0000816841F4A001F9E7002801400424014061
:101E100010B5044690F82400012807D0012084F86A
:101E200024002046FFF7EEFA10B107E0022010BDB3
:101E3000A16A21F4885141F00101A162002184F8D6
:101E4000241010BD014800687047000030010020D8
:101E500001490020086070473001002010B590F85B
:101E600021100022022905D00421816380F820205E
:101E7000012010BD01680B6823F00E030B600168A0
:101E80000B6823F001030B6090F84030C46B012114
:101E900001FA03F3636080F8211080F820201046D7
:101EA00010BD00002DE9F05F90F8211000240229F8
:101EB00003D004218163012485E001680A6822F0CF
:101EC0000E020A6001680A6822F001020A603F4EB1
:101ED0003E4FB215DFF8F4C0DFF8F090DFF8ECA069
:101EE000DFF8E8B0DFF8E4E00168783F130115029D
:101EF000ACF1640CA9F15009AAF13C0AABF1280B32
:101F0000AEF1140E4FF48018B14227D9B9420ED069
:101F1000614512D049451DD0514518D0594518D0BA
:101F2000714501D1424615E0294EB14201D101224D
:101F300010E0274E1436B14201D110220AE0244E9F
:101F40002836B14206D0224A3C32914201D11A468B
:101F500000E02A461E49091F0A602BE0B94213D04F
:101F6000614517D0494522D051451DD059451DD056
:101F7000714501D142461AE0B14202D14FF0807260
:101F800015E0134EB14201D1012210E0104E14367B
:101F9000B14201D110220AE00D4E2836B14206D0DE
:101FA0000B4A3C32914201D11A4600E02A460749C9
:101FB00080394A60012180F82110002180F820102A
:101FC000416B01B188472046BDE8F09F8000024088
:101FD0000804024070B5044600F0DCF90546601CB8
:101FE00002D004480078044400F0D4F9401BA04219
:101FF000FAD370BD200000202DE9F04705462648A1
:102000000F460126017E01290FD00121814601766C
:102010002868DFF888804CF25034022808D0A246A5
:102020002046FFF75DFCA8B131E00220BDE8F08753
:102030002046FFF755FC08BB0120FFF7F1FB2046C7
:10204000FFF74EFCD8F81010064621F00401C8F83E
:1020500010101CE04FF0FF303860AC6811E02046F3
:10206000FFF7F0FB5046FFF73BFCD8F810100600D6
:1020700021F00201C8F8101001D03C6007E004F51F
:102080000064D5E9020100EBC120A042E7D800219D
:1020900089F818103046C9E770040020002002407B
:1020A0000348016941F08001016100207047000090
:1020B000002002402DE9F05F07461C4888460024B6
:1020C000017E15461E46012909D00121814601766F
:1020D0004CF2503A5046FFF703FC18B122E00220C0
:1020E000BDE8F09F012F02D0022F00D00427D34675
:1020F000DFF83CA0220128463146FEF781F981B283
:1021000008EB4400FFF7B0FB5846FFF7E9FBDAF8AD
:10211000102022F00102CAF8102018B9641CE4B2A1
:10212000BC42E7D3002289F81820D9E770040020C8
:1021300000200240064900200A69120607D5054A18
:102140004A60054A4A600969090600D501207047BE
:102150000020024023016745AB89EFCD022803D15F
:1021600002480168491C01607047000030010020EE
:10217000044910B50A68024202D00860FFF7EEFF7A
:1021800010BD0000140401402DE9F84FDFF8C8919C
:102190000024A9F1040B23460F2709F1040AABF12F
:1021A000040ED1E00125A54006EA0502AA4276D137
:1021B000DFF8A8C14E68A6EB0C0866452BD00DDCF5
:1021C000032E34D005DC36B3012E19D0022E2FD1C8
:1021D0001BE0112E16D0122E2AD119E0B8F5881F57
:1021E00019D006DCB8F5803F15D0B8F5801F1FD197
:1021F00011E0B8F5001F0ED0B8F5041F18D10AE0A1
:10220000CB6815E0CB681B1D12E0CB6808330FE0EC
:10221000CB680C330CE08B682BB1012B4FF008031B
:1022200003D0456104E0042302E0056100E00023DF
:10223000FF2A01D8064601E000F104064FEA8405B2
:1022400001D9A5F12005D6F8008007FA05FC28EA97
:102250000C0803FA05F548EA0508C6F800804D6841
:10226000ED0070D53E4DAE6946F00106AE61AD6938
:1022700024F0030605F0010500953A4D06EB050C28
:10228000DCF80850A607360F07FA06F825EA080515
:10229000DFF8D480404503D14FF0000825E052E03C
:1022A000DFF8C880404502D14FF001081DE0DFF89B
:1022B000C080404502D14FF0020816E0DFF8B4803C
:1022C000404502D14FF003080FE0DFF8AC804045F5
:1022D00002D14FF0040808E0DFF8A080404502D1A9
:1022E0004FF0050801E04FF0060808FA06F848EA42
:1022F0000508CCF808804D68D9F80060ED024D461D
:1023000001D5164300E096432E604D68DAF8006070
:10231000AD02554601D5164300E096432E604D6848
:10232000DBF80060AD035D4601D5164300E096433F
:102330002E604D68DEF80060ED03754601D516434A
:1023400000E096432E60641C0A681646E2407FF463
:1023500029AFBDE8F88F000008040140000011100B
:10236000001002400000014000080140000C014044
:10237000001001400014014000180140001C014001
:102380008068084000D0012070470AB101617047A1
:102390000904FBE701488068704700002000002026
:1023A0000248816802781144816070472000002053
:1023B000074810B5016841F010010160032000F0EA
:1023C000A7F80F2000F006F800F050F8002010BD2C
:1023D0000020024030B505461F4887B0C16941F072
:1023E0000401C161C06906A900F00400009001A8C1
:1023F00000F008FA0498B0B100F024FA4000174940
:10240000174AB0FBF1F11748491E0260416040F2E3
:10241000E7320021C0E903218160816100F0B4FD51
:10242000040003D015E000F00DFAE8E70D4800F0D5
:10243000F5FD04000DD11E2000F03CF8102D07D250
:10244000002229461E2000F043F80748056000E0FE
:10245000012407B0204630BD0010024040420F006A
:102460000008004024040020240000200F4808B584
:10247000816941F001018161816901F001010091EF
:10248000C16941F08051C161C069002200F08050F3
:1024900000900F21901E00F01BF80548416821F0C4
:1024A000E06141F00071416008BD00000010024091
:1024B00000000140002809DB00F01F0201219140CB
:1024C0004009800000F1E020C0F8001170470000D2
:1024D000F0B40E4B1B680C46C3F30223C3F107058F
:1024E000042D00D90425191D072901D2002300E07D
:1024F000DB1E012606FA05F1491E214099409E4047
:10250000761E16403143F0BC03F07CBF0CED00E0BA
:10251000064900F0070208684FF6FF03184040EA3A
:102520000220034A10430860704700000CED00E0F1
:102530000000FA0510B501460020284C04292FD0D0
:102540000BDC012930D0022929D100F08BF9616818
:10255000C1F38131491C49001FE0082920D010290E
:102560001DD161682268D20119D51D48C1F383428B
:10257000C903805C0AD56168194AC1F34041921EC3
:10258000515C184AB2FBF1F1484301E01649484357
:102590006168490203D440000321B0FBF1F010BD93
:1025A000BDE8104000F06EB9226AC2F30121012992
:1025B00003D1920701D5C80310BD022905D1626A73
:1025C000920702D549F6404010BD0329FCD121688D
:1025D0008903F9D54FF2244010BD000000100240DD
:1025E000BCBA010800127A0000093D002DE9F84349
:1025F00005460078354CC00754D0E0690026C0007D
:1026000008D4E06940F08050E061E069012600F004
:10261000805000902E480168C90512D40168804698
:1026200041F480710160FFF7B5FE074605E000BF89
:10263000FFF7B0FEC01B642823D8D8F80000C005FF
:10264000F6D5206A10F4407021D0A98801F44071B9
:1026500081421CD0206A1F49012220F440700A6088
:1026600000220A602062C00711D0FFF793FE0746E0
:1026700041F2883808E000BFFFF78CFEC11B4145DE
:1026800002D90320BDE8F883206A8007F4D5206AC8
:10269000696820F44070084320621EB1E06920F0B0
:1026A0008050E0612878800705D56068A96820F42B
:1026B0004040084360602878C00605D560686969B5
:1026C00020F48000084360600020DBE70010024037
:1026D00000700040400442422DE9F0470F460500DB
:1026E00061D0434E306800F00700B84209D230682C
:1026F00020F0070038433060306800F00700B8422F
:1027000051D128683B4C810712D5400703D560683A
:1027100040F4E06060602878000703D5606840F40A
:10272000605060606068A96820F0F0000843606055
:102730002878C00728D06868012810D021680228AE
:1027400010D0890700292EDA616821F003010143C6
:102750006160FFF71FFE804641F288390DE0216875
:102760008903EFE78901EDE7FFF714FEA0EB08010D
:10277000494502D90320BDE8F0876068696800F028
:102780000C00B0EB810FEFD1306800F00700B842C9
:102790000BD9306820F0070038433060306800F013
:1027A0000700B84201D00120E5E72878400705D5A9
:1027B0006068E96820F4E0600843606028780007FA
:1027C00006D56068296920F4605040EAC100606065
:1027D00000F058F86168084AC1F30311515CC84021
:1027E0000649086006480068FFF7F4FD0020C2E7CC
:1027F0000020024000100240CCBA01082C0000204A
:10280000240000200F2202600C4A536803F00303E7
:102810004360536803F0F0038360536803F4E0639C
:10282000C36052684FF4E06303EAD20202610448D5
:10283000006800F0070008607047000000100240C8
:10284000002002400448054900684968044AC1F371
:102850000221515CC84070472C000020001002404B
:10286000DCBA01080448054900684968044AC1F314
:10287000C221515CC84070472C000020001002406B
:10288000DCBA01080E4A51680E4801F00C03042B13
:1028900011D0082B0FD10C48C1F38343C903C05C8E
:1028A0000AD55168084AC1F34041921E515C054A5D
:1028B0005043B0FBF1F070470449484370470000B3
:1028C0000010024000127A00AABA010800093D0077
:1028D0002DE9F84F040070D02078C04DC00749D0D2
:1028E0006868C0F38100012807D06868C0F38100E0
:1028F000022809D16868C00306D52868800339D545
:1029000060680028E7D035E06068B0F5803F0BD004
:1029100010B1B0F5A02F11D0286820F480302860C5
:10292000286820F4802002E0286840F48030286085
:10293000606890B1FFF72EFD06460AE0286840F473
:1029400080202860F0E700BFFFF724FD801B64288B
:1029500073D828688003F7D50CE0FFF71BFD064607
:1029600005E000BFFFF716FD801B6428F0D828683B
:102970008003F7D420789A4E80074FF001094FF07A
:10298000000839D5686810F00C0F07D06868C0F3EC
:102990008100022809D16868C00306D4286880072E
:1029A00014D52069012808D110E02069B0B1C6F81B
:1029B0000090FFF7EFFC074605E00AE1FFF7EAFCAD
:1029C000C01B0228C4D828688007F7D52868616929
:1029D00020F0F80040EAC10028600DE0C6F8008051
:1029E000FFF7D8FC074604E0FFF7D4FCC01B022821
:1029F00023D828688007F7D4207800072CD5794899
:102A0000A169D9B1C0F80090FFF7C4FC074604E003
:102A1000FFF7C0FCC01B02280FD8686A8007F7D5F3
:102A200071484FF4FA510068B0FBF1F0009000BF1C
:102A30000098411E0091FAD20EE080E0C0F80080BC
:102A4000FFF7A8FC074604E0FFF7A4FCC01B022820
:102A500075D8686A8007F7D42078400760D5E869A0
:102A60000027C00008D4E86940F08050E861E869B8
:102A7000012700F0805000905C480168C90513D41C
:102A80000168834641F480710160FFF783FC824650
:102A900006E000BFFFF77EFCA0EB0A0064284ED8DA
:102AA000DBF80000C005F5D5E06801280AD008B1C0
:102AB000052813D0286A20F001002862286A20F037
:102AC000040002E0286A40F001002862E06841F258
:102AD000883B98B1FFF75EFC82460BE0286A40F025
:102AE00004002862EEE700BFFFF754FCA0EB0A01E8
:102AF00059455AD8286A8007F6D50CE0FFF74AFCFA
:102B0000824605E0FFF746FCA0EB0A0159454CD888
:102B1000286A8007F6D41FB1E86920F08050E86188
:102B2000E06988B36968C1F38101022944D00228B1
:102B3000C6F8608004D0FFF72DFC044638E034E08E
:102B4000FFF728FC074604E0FFF724FCC01B02281F
:102B50002BD828688001F7D4206AB0F5803F05D1D2
:102B60006868A16820F4003008436860D4E908016F
:102B70000843696821F4741108436860C6F86090DE
:102B8000FFF708FC044606E025E000BFFFF702FC63
:102B9000001B022809D828688001F7D51BE000BF78
:102BA000FFF7F8FB001B022802D90320BDE8F88FCD
:102BB00028688001F4D40EE00128F7D06868226A02
:102BC00000F48031914204D1616A00F470108842AF
:102BD00001D00120EAE70020E8E7000000100240F1
:102BE00000004242800442422C000020007000405D
:102BF00070B5040009D0606A002540B125616561A7
:102C0000A56294F8510040B10CE0012070BD6068ED
:102C1000B0F5827FF4D0E561F2E784F850502046A9
:102C200000F040F8022084F851002068016821F08B
:102C300040010160A088218900F4827001F4044100
:102C40000843A18901F400610843217C01F00201DD
:102C50000843217D01F001010843218B01F400713B
:102C60000843217F01F03801084394F8201001F057
:102C700080010843218D01F4005108432168086058
:102C8000A069042101EA1040216848602068C169F8
:102C900021F40061C1616565012084F851000020C4
:102CA00070BD000030B585B00024009401940294FA
:102CB000039400681549884226D11548C16941F43A
:102CC0008041C161C16901F480410491816941F091
:102CD0000801816180690F4D00F0080004904FF4F5
:102CE000204000900220019003200390694628466E
:102CF000FFF74AFA4FF48040CDE90004012002902A
:102D000069462846FFF740FA05B030BD003800405C
:102D100000100240000C01402DE9FF4F81B01D461C
:102D2000934604464FF001090E9EFFF733FB07461A
:102D300094F851006168012806D0B1F5827F3CD13A
:102D4000A168C9BB042838D10298002871D0BBF112
:102D5000000FFBD0002DF9D094F8500001282CD0A2
:102D60004FF0010A84F850A094F85100042802D0D2
:102D7000052084F851004FF00008C4F85480C4F8CE
:102D800038B0E587A58702992163E586A586C4F852
:102D90004080C4F8448020680168490603D4016873
:102DA00041F040010160E068B0F5006F606808D054
:102DB000F0B3012D49D081E0FFE7022005B0BDE866
:102DC000F08F08B1012D39D1206B21680088C860CF
:102DD000206B801C2063E08E401EE0862EE0206881
:102DE000816889070FD5E18E69B1B9F1010F0AD168
:102DF000216B0988C160206B801C2063E08E401E1F
:102E0000E0864FF0000920688168C9070CD0E18F87
:102E100051B1C068A16B0880A06B801CA063E08FDB
:102E2000401EE0874FF00109FFF7B4FAC01B01E034
:102E30000BE067E0B04201D3701C50D1E08E002857
:102E4000CDD1E08F0028CAD13EE0206B2168007808
:102E50000873206B401C2063E08E401EE0862DE04E
:102E60002068816889070FD5E18E69B1B9F1010F3A
:102E70000AD1216B09780173206B401C2063E08E1E
:102E8000401EE0864FF0000920688168C9070CD019
:102E9000E18F51B1C068A16B0870A06B401CA063AA
:102EA000E08F401EE0874FF00109FFF773FAC01B67
:102EB000B04202D3701C01D011E086B1E08E002830
:102EC000CED1E08F0028CBD13A463146204602F0E1
:102ED0000DFC50B12020606584F8508012E084F829
:102EE00051A084F85080032068E7A06818B92068D2
:102EF000C1688068009084F851A084F85080606DAB
:102F00000028F1D0012059E77047704770B590F85C
:102F10003C20012A2CD0012480F83C40022280F879
:102F20003D2003685A689D6822F070060A683243A3
:102F30005A60104B02689A420ED00F4B9A420BD047
:102F4000B2F1804F08D00D4B9A4205D00C4B9A42FB
:102F500002D00C4B9A4204D1496825F080031943F2
:102F6000916080F83D40002180F83C10084670BD1B
:102F7000022070BD002C01400034014000040040DC
:102F800000080040000C004010B5040003D094F885
:102F90003D0010B107E0012010BD002084F83C0086
:102FA000204600F01FF8022084F83D00211D206813
:102FB00002F012FF012084F8460084F83E0084F8F5
:102FC0003F0084F8400084F8410084F8420084F80F
:102FD000430084F8440084F8450084F83D00002054
:102FE00010BD000008B50068B0F1804F12D10A484A
:102FF000C16941F00101C161C069002200F0010016
:10300000009005211C20FFF763FABDE808401C2052
:10301000FFF750BA08BD00000010024090F83D10C4
:10302000012901D001207047022180F83D1001687C
:10303000CA6842F00102CA6000680E4988420ED098
:103040000D4988420BD0B0F1804F08D00B4988421F
:1030500005D00B49884202D00A49884204D18168D0
:1030600001F00701062903D0016841F00101016068
:1030700000207047002C0140003401400004004053
:1030800000080040000C004070B5044690F83C0079
:103090000025012817D0012684F83C60022084F81E
:1030A0003D002068826822F0770222F47F4282602D
:1030B0000868502838D00DDC20284FD005DC90B3AC
:1030C000102811D14AE0022070BD302846D0402897
:1030D0000AD13BE060282FD070280DD0B0F5805F7A
:1030E00003D0B0F5005F12D0012584F83D600020C8
:1030F00084F83C00284670BDCB68D1E901212068E6
:1031000002F0B8FE2068816841F0770109E0CB68E1
:10311000D1E90121206802F0ADFE2068816841F408
:1031200080418160E1E719E0CA684968206802F0DF
:1031300075FF5021206806E0CA684968206802F0DF
:103140007EFF6021206802F09FFECEE7CA684968D2
:10315000206802F063FF40212068F4E722680146FE
:103160001046F0E770472DE9F04104460068C66854
:1031700005694FF00007A90713D5B10711D5F91E4E
:10318000016101202077206880698007204602D0F5
:10319000FFF7E8FF04E000F0A5F8204600F04AF948
:1031A0002777680716D5700714D521686FF00400DB
:1031B0000861022020772068806910F4407F204653
:1031C00002D0FFF7CFFF04E000F08CF8204600F0BB
:1031D00031F92777280715D5300713D521686FF007
:1031E00008000861042020772068C0698007204615
:1031F00002D0FFF7B7FF04E000F074F8204600F0BB
:1032000019F92777E80616D5F00614D521686FF06E
:1032100010000861082020772068C06910F4407F02
:10322000204602D0FFF79EFF04E000F05BF8204646
:1032300000F000F92777E80708D0F00706D02168EA
:103240006FF001000861204600F0F6F8280608D566
:10325000300606D521686FF0800008612046FFF730
:1032600053FE680608D5700606D521686FF0400049
:103270000861204600F0F8F8A8060AD5B00608D57F
:1032800021686FF0200008612046BDE8F041FFF79B
:103290003CBEBDE8F081000000B585B00021009182
:1032A00001910291039100680B49884211D10B48AA
:1032B000816941F0040181618069694600F0040080
:1032C0000490C02000900220019003900448FEF773
:1032D0005BFF05B000BD000000040040001002408C
:1032E00000080140704770B5044690F83C00002685
:1032F0000D4601280FD0012084F83C006AB1042A51
:103300001DD0082A2FD00C2A3FD00126002084F897
:103310003C00304670BD022070BD206802F0BCFD4C
:103320002068816941F0080181612068816921F08C
:1033300004018161206881692A69114311E02068D4
:1033400002F0DAFD2068816941F400618161206842
:10335000816921F480618161206881692A6941EA7B
:1033600002218161D2E7206802F0FCFD2068C1697A
:1033700041F00801C1612068C16921F00401C16107
:103380002068C1692A69114311E0206802F01EFE1D
:103390002068C16941F40061C1612068C16921F4FC
:1033A0008061C1612068C1692A6941EA0221C16165
:1033B000ACE710B5040003D094F83D0010B107E06D
:1033C000012010BD002084F83C00204600F01EF8CB
:1033D000022084F83D00211D206802F0FDFC012040
:1033E00084F8460084F83E0084F83F0084F84000EA
:1033F00084F8410084F8420084F8430084F84400D3
:1034000084F8450084F83D00002010BD08B5006830
:103410000649884208D10648C16941F00201C161EC
:10342000C06900F00200009008BD000000040040E8
:10343000001002407047000010B504460068B0F16B
:10344000804F04D107F07EF80548006880470549A1
:103450002068884203D1BDE81040FEF7A1BF10BD2F
:10346000700100200008004070477047704700005E
:10347000F8B5016804460868CA684B6910F00F0F78
:103480004FF0000559D003F0010602F4907737435E
:1034900065D0C10705D0D10503D5616C41F00101AC
:1034A0006164410705D5D90703D0616C41F0020181
:1034B0006164810705D5D90703D0616C41F004012F
:1034C0006164010707D502F02001314303D0616C2C
:1034D00041F008016164616C00293AD0800604D58E
:1034E000900602D5204602F0EBFD20684069616C31
:1034F000C0F38010090700D460B3204602F0B9FD84
:1035000020684069400621D52068143050E8001F2B
:1035100021F0400140E80012002AF5D1E06BA8B18B
:103520006D494163E06BFEF7BDFC002811D0E06BF4
:10353000416B01B0BDE8F040084783060FD5930604
:103540000DD52046BDE8F84002F0BABD2046FFF791
:103550008DFFF8BD2046FFF789FF6564F8BD266B37
:103560002023012E7CD1C6067AD5D60678D50868E8
:103570004868009048694FF00206400640D5E16B6C
:10358000086840680004000CE8D0A28D8242E5D9AA
:10359000E085886920282DD020680C3050E8001F75
:1035A00021F4807140E80012002AF5D1206814301F
:1035B00050E8001F21F0010140E80012002AF5D177
:1035C0002068143050E8001F21F0400140E800124C
:1035D000002AF5D184F84230256320680C3050E889
:1035E000001F21F0100140E80012002AF5D1E06B25
:1035F000FEF734FC6663A08DE18D401A81B22AE0AB
:10360000A08DE18D401A81B2E08D0028A6D000295E
:10361000A4D022680C3252E8000F20F4907042E8E7
:103620000007002FF5D12068143050E8002F22F059
:10363000010240E80027002FF5D184F842302563CD
:1036400020680C3050E8002F22F0100240E80023E0
:10365000002BF5D166632046FFF707FFF8BDFFE7B3
:1036600005062BD5150629D594F841002128F5D15A
:10367000A068B0F5805F01D12069B0B1206A411C1B
:103680002162216800784860E08C401E0004000C34
:10369000E084E3D12068C16821F08001C160206826
:1036A000C16841F04001C160D8E7206A0088C0F3DA
:1036B00008004860206A801C2062E5E74006CDD5FE
:1036C0005006CBD5CA68204622F04002CA6084F872
:1036D000413000F059F9C1E76360010870B504009A
:1036E00004D094F84100002510B106E0012070BD1F
:1036F00084F84050204600F023F8242084F841004C
:103700002068C16821F40051C160204602F03AFDF2
:103710002068016921F4904101612068416921F02C
:103720002A0141612068C16841F40051C1606564AB
:10373000202084F8410084F842006563002070BDB9
:10374000F0B585B0002400940194029403940368BA
:10375000424F022042490322424D4602BB4225D13C
:103760008B6943F480438B618B6903F4804304933A
:103770008B6943F004038B618969039201F00401B2
:1037800004910102CDE9001069462846FEF7FCFCD1
:10379000CDE90064694628460294FEF7F5FC002254
:1037A00005212520FEF794FE252028E02E4FBB4260
:1037B00029D1CB6943F40033CB61CB6903F40033E7
:1037C00004938B6943F004038B618969039201F0D0
:1037D000040104910421CDE9001069462846FEF752
:1037E000D3FC0820CDE90004694628460294FEF780
:1037F000CBFC002205212620FEF76AFE2620FEF7DC
:1038000059FE05B0F0BD194DAB42FAD1CB6943F476
:103810008023CB61CB6903F4802304938B6943F04D
:1038200008038B618969124D01F00801CDE903217C
:10383000CDE9006069462846FEF7A6FCE814CDE90C
:103840000004694628460294FEF79EFC00220521EA
:103850002720FEF73DFE2720D1E700000038014079
:1038600000100240000801400044004000480040B1
:10387000000C014090F84230202B01D0022070470C
:1038800021B11AB10023036302F0D8BC01207047B4
:1038900010B50068104988421DD1104C60883F283F
:1038A00007D20F4A61781154401C608005F01CFC5F
:1038B000606060780A2804D00D2802D060883F2814
:1038C00001D30120207005490122BDE81040491CA8
:1038D0000448FFF7CFBF10BD00380140140100209D
:1038E000405C00204C0300202DE9F843044690F88A
:1038F0004100984616460D46202802D00220BDE819
:10390000F88385B17EB100206064212084F84100F5
:10391000FEF740FDA6848146E684A0682027B0F526
:10392000805F02D003E00120E9E7206910B12E4654
:1039300000250EE000260CE08021204602F099FCD4
:10394000A8B9C6B116F8010B21684860E08C401E8A
:10395000E084E08C4B464FF00002CDF80080002858
:10396000EAD14FF04001204602F083FC40B184F8D8
:1039700041700320C3E735F8020BC0F30800E3E70A
:1039800084F841700020BAE77047FEE708B1502183
:1039900000E00021012000F0C5BF10B5012000F0BB
:1039A0009BFF002800D0012010BD00003EB5002183
:1039B0001148009101910F4A0291026081600173E8
:1039C000017501244FF460220461C2614160FEF779
:1039D00065F808B1FDF7FEFE05200094CDE9014031
:1039E00069460548FDF7D8FF002801D0FDF7F2FE33
:1039F0003EBD0000002401403402002010B50449FF
:103A00000448FDF7E9FE0249491E087010BD000098
:103A1000210200200C02002010B59CB005F0E8F94E
:103A200001F0C0F9214805F050FC214C1F4A00214B
:103A30006061903A1F4805F09DFC1C4A60606C3A3A
:103A400000211D4805F096FC184AA060483A002164
:103A50001A4805F08FFC154AE060243A0021184806
:103A600005F088FC11492061242210316846FCF7DA
:103A7000D7FC6A460021134805F07CFC0B49242240
:103A8000343109A8FCF7CCFC09AA00210E4805F046
:103A900071FC06492422583112A8FCF7C1FC12AA75
:103AA00000210A4805F066FC1CB010BD2CBA0108C4
:103AB00008000020315A0108195B0108495B010820
:103AC000F55C010849170108D13D0108A54F01081F
:103AD0002DE9F04786B000244148009401940294F7
:103AE0000394816941F010018161816901F0100145
:103AF0000491816941F020018161816901F0200117
:103B00000491816941F004018161816901F004013E
:103B10000491816941F0080181618069DFF8C48006
:103B200000F0080042F203050490002229464046B6
:103B3000FEF72BFCDFF8B0A00022D1215046FEF7A3
:103B400024FC012211035046FEF71FFCDFF89C9075
:103B50006F11002239464846FEF717FC00950226F1
:103B600001250396CDE9015469464046FEF70CFB5A
:103B700041F25100CDE90005CDE9024669465046C3
:103B8000FEF702FB1A480096CDE90105694650464A
:103B9000FEF7FAFA4FF440708DE83100694640466E
:103BA000FEF7F2FA00970396CDE9015469464846BC
:103BB000FEF7EAFA8020009001AA112082E8510065
:103BC00069465046FEF7E0FA002205210720FEF77D
:103BD0007FFC0720FEF76EFC06B0BDE8F087000012
:103BE0000010024000100140000C0140000801409C
:103BF00000001110104810B50E4901604FF4827199
:103C0000416000218160C1604FF400720161C0E930
:103C100005123822C0E90721416281620A21C1628E
:103C2000FEF7E6FF002803D0BDE81040FDF7D2BD47
:103C300010BD0000003800406402002010B586B0BE
:103C400000241648009401940294039404944FF0C5
:103C500080410594C0E900144FF6FF71C0E90241AC
:103C600004618461FFF790F908B1FDF7B3FD4FF4EB
:103C70008050009069460948FFF706FA08B1FDF741
:103C8000A9FD049404A905480594FFF73FF900280D
:103C900001D0FDF79FFD06B010BD0000BC02002062
:103CA00010B58AB0002407941C2168460894FCF7DC
:103CB000D0FB1B48194901600321C0E9011440F2FF
:103CC0008331C0E9031480218161FFF772FB08B1E1
:103CD000FDF780FD079407A911480894FFF716F92E
:103CE00008B1FDF777FD6020CDE9000402940022C1
:103CF00069460B480494FFF7F6FA08B1FDF76AFD30
:103D0000042269460648FFF7EEFA08B1FDF762FDA6
:103D10000348FFF7C1FA0AB010BD000000040040DC
:103D2000040300200C4810B50A4901604FF4E1314A
:103D30004160002181600C22C160C0E904128161F0
:103D4000C161FFF7CBFC002803D0BDE81040FDF7B0
:103D500041BD10BD003801404C0300200C4810B597
:103D60000A4901604FF4E1314160002181600C2279
:103D7000C160C0E904128161C161FFF7AFFC002896
:103D800003D0BDE81040FDF725BD10BD0044004044
:103D9000940300200C4810B50A4901604FF41651F5
:103DA0004160002181600C22C160C0E90412816180
:103DB000C161FFF793FC002803D0BDE81040FDF778
:103DC00009BD10BD00480040DC030020FEE70000F4
:103DD00008B500F017FE014600204FF416530246C6
:103DE000009003F03FFF03F029FE00BF03F07AFFCD
:103DF000012005F055F9F9E70F4800B5816985B054
:103E000041F0080181618069694600F00800049072
:103E1000C020009011200190012002900320039007
:103E20000648FEF7B1F9012000F0A6F8012000F0E5
:103E3000B1F805B000BD000000100240000C0140C8
:103E400080210148FEF79CBA000C014010B501200A
:103E500000F0A0F8022003F073FC012000F08CF8C1
:103E6000052003F06DFCFFF7EBFF0446002000F097
:103E700083F8022003F064FC204610BD70B50025D5
:103E8000012000F087F800248026012000F074F85B
:103E9000052003F055FCFFF7D3FF012802D126FAD5
:103EA00004F00543002000F067F8022003F048FC0E
:103EB000641CE4B2082CE8D3284670BD10B500F0AD
:103EC00069F8022003F03CFC012000F055F80520C1
:103ED00003F036FC002000F04FF8BDE8104002204F
:103EE00003F02EBC70B500240546802626FA04F0A7
:103EF000284000F04FF8022003F022FC012000F0DF
:103F00003BF8052003F01CFC002000F035F80220EF
:103F100003F016FC641CE4B2082CE7D370BD10B5A6
:103F2000012000F037F8052003F00AFC012000F022
:103F300023F8052003F004FC002000F02BF80520F6
:103F400003F0FEFBBDE81040002000F015B810B5EE
:103F5000002000F01FF8052003F0F2FB012000F024
:103F60000BF8052003F0ECFB012000F013F8BDE88E
:103F70001040052003F0E4BB10B502464021044880
:103F8000FEF703FABDE810400A2003F0D9BB000099
:103F9000000C014010B5024680210448FEF7F5F9F7
:103FA000BDE810400A2003F0CBBB0000000C01402C
:103FB00070B515460E460446FFF7B1FF2046FFF7E1
:103FC00091FFFFF743FF58B93046FFF78BFFFFF72C
:103FD0003DFF28B92846FFF785FFFFF737FF18B1E7
:103FE000FFF7B5FF012070BDFFF7B1FF002070BDE6
:103FF000084938B1012807D0022807D0032807D084
:104000000548704708687047486870478868704777
:10401000C8687047C8000020000080BF7FB501A9B4
:104020006846FDF795FA0D4C0D4D60B12560656051
:1040300002A8FDF721FB58B1A56003A801F050FCD0
:1040400048B1E5607FBD0098206001986060EFE7AF
:104050000298A060F1E70398E0607FBDC8000020EF
:10406000000080BFFEE70000F0B5194C9DB0694626
:10407000204600F00DFE174F05460EA9384600F009
:1040800007FE154E35B118B10F990198884202D339
:104090006D4602E068B10EAD3C4605F10C0000F043
:1040A00003FD00F067FC74606868401CB0601DB0E0
:1040B000F0BD0AA1012004F0A5FE0020B06020465A
:1040C00001F08AFB0028F2D00120C6E90140EEE7AA
:1040D00000F0000800F80008DC0000204E565320D5
:1040E000656D7074792C20757365206465666175E3
:1040F0006C7420706172616D7320616E64207361F5
:104100007665000070B500F0A9FD104C10B11420C8
:10411000208070BD20880028FBD0401E0004000CC9
:104120002080F6D10A4D6068A84200D1094D28468A
:1041300001F052FB0028ECD06560A26806A1521C79
:10414000A260BDE87040012004F05CBEDC000020ED
:1041500000F8000800F000084E56532073617665A1
:1041600064207365713D25640000000010B50021D6
:10417000074C0A46002004EBC1131A54401CC0B27D
:104180008028FAD3491CC9B20829F3D310BD000016
:10419000805C0020F0B50B4424E0044685181DE047
:1041A0007F2C19D8002917DB3F2915DCCE1701EB2E
:1041B00056764FEAE60C0D4F26F0070607EBCC17B4
:1041C0002744A1EB060E97F800C0012606FA0EF66A
:1041D0002CEA060C87F800C0641C24B2A542DFDC80
:1041E000491C09B28B42D8DCF0BD0000805C002085
:1041F00010B5AE2000F048FAD52000F045FA802036
:1042000000F042FAA82000F03FFA3F2000F03CFA0C
:10421000D32000F039FA002000F036FA402000F0F8
:1042200033FAA12000F030FAC82000F02DFADA208D
:1042300000F02AFA122000F027FA812000F024FA78
:10424000CF2000F021FAD92000F01EFAF12000F072
:104250001BFADB2000F018FA302000F015FAA42039
:1042600000F012FAA62000F00FFA8D2000F00CFAF0
:10427000142000F009FAAF2000F006FAFFF776FFED
:10428000BDE8104000F0ECB9032803D202490870E1
:10429000FFF76CBF704700001C01002010B54FF401
:1042A00000710C48FEF76CF80B4910B10020487003
:1042B00010BD48780028FBD10120487008780322FF
:1042C000401CB0FBF2F302FB13000870BDE8104085
:1042D000FFF74CBF001001401C01002010B5094C35
:1042E000207848B101280AD005F016FF00F0B8F98F
:1042F0006068801C606010BD05F086FEF6E705F082
:10430000EBFDF3E71C0100200246012000E05043D2
:10431000491EFCD2704710B50C4640F0B00000F0CA
:10432000B3F9102040EA141000F0AEF904F00F00C9
:10433000BDE8104000F0A8B908B5064B02EB4202F8
:1043400003EB4202C03A00920823062200F062F812
:1043500008BD000060BB01082DE9FF5F82B0144674
:104360001D46DDE911B706460022134620462946C0
:10437000DDF840A0FCF714FB3B4605D82B22304665
:104380000399FFF7D9FF06E02D2230460399FFF786
:10439000D3FF85F0004520462946FCF7D5FA814633
:1043A000FCF798FA22462B46FCF711FA0C46054614
:1043B00059460A20FFF7A8FF8046FCF78BFA2A46E9
:1043C0002346FCF707FA05F03DFDFCF7BDFAB0FB0C
:1043D000F8F1054601EB0902B01D5346009700B203
:1043E000039900F075F80AEB4A0006EB4004A01DA3
:1043F00000B23B462E220399FFF79EFF0C3420B2F9
:104400005B462A460097039900F062F806B0BDE8C3
:10441000F09F00002DE9F04F1F4616460D468246DC
:104420000024FFF7B7FE7F1EF81707EB507001213D
:10443000DFF898B001EBE00743E000203DE000BF6B
:104440000AEB00037F2B36D8E91705EB5171CA1030
:1044500021F00701691A002D03DA521E083112B249
:1044600009B202EB0409B9F1070F0ED8099A04FB4F
:1044700006F802440BEBC91E18F802201EF803C010
:104480008A404CEA020C0EF803C009F10102072A27
:1044900011D80BEBC91202EB0308099A04FB06FCC6
:1044A000024498F880301CF80220C1F10801CA408B
:1044B000134388F88030401CC0B2B042C0D3641CA3
:1044C000E4B2A742B9DCBDE8F08F0000805C0020B8
:1044D0002DE9F04700241D4616468A4680460A27E5
:1044E000DDF8209016E0291B0A20491EFFF70CFF7B
:1044F000B6FBF0F0B0FBF7F107FB110204EB44014F
:1045000008EB410000B24B4651463032FFF714FF32
:10451000641CE4B2AC42E6D3BDE8F0872DE9FF4F5E
:10452000002483B0904683462546A246DFF82891B2
:104530008AE010060ED48DF80420641C8DF805A0C6
:104540000BEB0500A4B200B2069B0499FFF7F4FE42
:10455000AD1D78E00620B0EB521F0ED1641CA0B256
:104560008DF8042018F80010002972D08DF805107D
:10457000401C84B28DF806A03CE00E20B0EB121F68
:1045800016D1641CA0B28DF8042018F80010002980
:104590005FD0401C80B28DF8051018F8001000297B
:1045A00057D08DF80610401C84B28DF807A021E08A
:1045B0001E20B0EBD20F1FD1641CA0B28DF80420D6
:1045C00018F80010002944D08DF80510401C81B265
:1045D00018F8010000283CD08DF80600491C88B26C
:1045E00018F80010002934D0401C8DF8071084B250
:1045F0008DF808A0002609E0641CA4B224E0384627
:1046000001A9FBF742FF68B1761CB6B206EB860043
:1046100000EB461101EB0900074610A1FBF735FF3F
:104620000028ECD106EB860000EB461101EB0900F7
:10463000401D00900BEB0500102300B21A460499B0
:10464000FFF7E8FE1035ADB218F80420002A7FF419
:1046500070AF07B0BDE8F08F9ABD01080000000000
:1046600070B5084D002400212046FFF754FE05EBED
:10467000C410802100F00DF8641CE4B2082CF2D3C1
:1046800070BD0000805C0020024600217820FFF70A
:104690008FBC70B50D460646FFF741FC7820FFF74A
:1046A00021FCFFF7D3FB4020FFF71CFCFFF7CEFBFC
:1046B000002406E0305DFFF715FCFFF7C7FB641C24
:1046C000E4B2AC42F6D3BDE87040FFF740BC000056
:1046D00010B50C4C2078002812D0FDF75BFE616805
:1046E000401AC8280CD3BFF34F8F07480168074A08
:1046F00001F4E06111430160BFF34F8F00BFFDE79C
:1047000010BD0000B40000200CED00E00400FA052C
:10471000F0B52B4D8FB02946152206A8FBF780FE79
:10472000284806990024814218D00690264800683F
:104730002649884201D1422000E041208DF81D0029
:10474000412828D05FF041008DF81E00ADF81F40D1
:10475000CDF82140CDF82540CDF8294001278DF82E
:104760001C70DDF8290006AE401CCDF829000D9420
:10477000FDF7E0FCCDE904570DA902A80294FDF76E
:104780003BFC0024611C305D152906D231194978A3
:1047900040EA012203E04220D6E740F47F420023B2
:1047A00061190120FDF786FCA41C152CEAD3FDF746
:1047B00077FCFDF7EFFD064948600F700FB0F0BDC4
:1047C000003000085346544208ED00E000020208A1
:1047D000B400002000210160416081608161C161FD
:1047E000016201637047002181608161C1610162E2
:1047F000016370472DE9F04104468069E061D4E926
:1048000000104FF40005DFF8CC80FBF7BAFEA06182
:10481000616AA068FCF702F902D8A069A84207DA29
:10482000A16AA068FCF7F0F804D8A069404501D35C
:10483000012000E00020216911F0FF4F01D010B1EC
:1048400013E0002010E0A169206AFBF748FE206217
:10485000616BFCF7E3F801D2606B2062A16B206A08
:10486000FCF7D2F801D2A06B2062216B6068FBF7E5
:1048700088FE6169FBF78BFE0646216A2069FBF71B
:1048800086FE0746A169E068FBF781FE3946FBF723
:1048900026FE3146FBF775FEA060A84203DBE16A05
:1048A000FBF71DFEA060404503D3E16AFBF769FEFC
:1048B000A060616AFCF7B2F801D2606AA060A16AE8
:1048C000A068FCF7A1F801D2A06AA060606820632C
:1048D000BDE8F0810000808070B5054602F043FA23
:1048E0000F4CA0B1284602F03EFA042812D0284608
:1048F00002F039FA082820680FD0006C642180B2D9
:104900004843E168491CB0FBF1F0C0B270BD2068BB
:10491000406BF3E72068806BF0E7C06BEEE70000C8
:104920000403002070B50646642900D96421104CA8
:10493000E068401C48436421B0FBF1F085B230468A
:1049400002F011FA60B1304602F00DFA04280AD0E4
:10495000304602F008FA0828206807D0056470BDC8
:104960002068456370BD2068856370BDC56370BDF8
:10497000040300200149002048707047D80000203F
:104980000148406970470000145C00200148406AFB
:1049900070470000145C00200148006A7047000066
:1049A000145C00200148806870470000145C0020FF
:1049B0000148406870470000145C0020014800680E
:1049C00070470000145C00200148C0697047000077
:1049D000145C00200148806970470000145C0020CE
:1049E0000148006970470000145C0020014890F8FD
:1049F00028007047145C00202C220149FBF710BDF1
:104A0000145C0020014890F829007047145C0020D5
:104A10000148C06870470000145C002070B5174C56
:104A20004FF0824017492060154860604007C4E994
:104A300002011549C4E904101448A0611448E0615A
:104A40001448206214486062002684F8286004201C
:104A500084F829001148FFF7BDFE104D1048C5E944
:104A60000906EE626168FBF7C4FD686380F00040F0
:104A70000C49A8630120087070BD0000145C002080
:104A80009A99993E0000C841000048420000FA444B
:104A900000007A440000F04100007041D85B002023
:104AA0000000C842D800002010B501462C2203485F
:104AB000FBF7B6FC02490120087010BD145C002011
:104AC000D800002010F1FF4F00D3002002494861B8
:104AD0000249012048707047145C0020D800002073
:104AE000024948620249012048707047145C002066
:104AF000D80000200249086202490120487070472E
:104B0000145C0020D800002003498860034901207C
:104B10000870487070470000145C0020D800002026
:104B2000034948600349012008704870704700003D
:104B3000145C0020D80000200349086003490120CC
:104B40000870487070470000145C0020D8000020F6
:104B50000249C8610249012048707047145C002076
:104B6000D80000200249886102490120487070473E
:104B7000145C0020D8000020074910F1FF4F01D33A
:104B8000002002E0884200DD08460449086104492B
:104B900001204870704700000000C842145C0020EB
:104BA000D8000020022800D90220034981F82800FB
:104BB0000249012048707047145C0020D800002092
:104BC000034981F82900034901204870704700001B
:104BD000145C0020D80000200349C860034901206C
:104BE0000870487070470000145C0020D800002056
:104BF00070B516480178002926D000210170144CA8
:104C0000144D2068E86061682961A0686861E06807
:104C10002860686AFBF7EDFC686380F00040A863D9
:104C20000D4DA069A860E169E960FBF758FC686078
:104C3000206AE861616A2962FBF751FCA861BDE85E
:104C400070400448FFF7CFBD70BD0000D8000020C1
:104C5000145C0020D85B0020EC0000200448417860
:104C600019B10021417001207047002070470000F9
:104C7000D8000020024601210148FCF788BE000050
:104C8000000C014001210148FCF77ABE000C0140F4
:104C900010B50C46014638222046FBF7C1FB2088A0
:104CA000A0F52541A5390AD12089012807D12C2159
:104CB00004F10C00FCF724FD6188884201D000203B
:104CC00010BD012010BD0000032801D30020704753
:104CD0000149085C70470000E800002000200449FA
:104CE00002460A54401CC0B20328FAD370470000A1
:104CF000E80000202DE9F05F1A4E002582464FF0B3
:104D00000109AB46A6F1040805EB850006EB80041B
:104D1000E17C012920D136F820005146884707461A
:104D200010F1814F18D0A168FBF76EFE0BD2A07C6A
:104D30000FE0227C08F802900EE002280CD1227CC1
:104D400008F802B008E038466168FBF767FE03D256
:104D5000607C0128F1D1ECE76D1CEDB2022DD3D3BC
:104D6000BDE8F09FEC00002070B50B4C0546A06834
:104D7000002810D04FF0FF3104F07EFA00280AD14D
:104D80002B4606A21821064801F00EFBA068BDE8DC
:104D9000704004F0CEBA70BDBC0000202573000046
:104DA0006457002010B500226021102004F004FA9E
:104DB000034C6060002004F088FAA06010BD000081
:104DC000BC0000202DE9F04FAFB01822594925A8AA
:104DD000FBF726FB584D686800287DD0A86890B185
:104DE0004FF0FF3104F048FA68B9544C207838B1DC
:104DF000234653A2182125A801F0D6FA00202070DE
:104E0000A86804F096FA2BAE1024FDF7C3FA4D49BA
:104E10003C22B0FBF1F34EF66021B0FBF1F1B1FBA7
:104E2000F2F702FB17114FF47A77B0FBF7F0B0FB03
:104E3000F2F702FB1700CDE9001043A221463046ED
:104E400001F0B2FA0024FFF7D1FD012802D00228B8
:104E500002D002E0012400E002240020FFF7C8F89D
:104E600010F1814F01D144F00404FEF796FD08B122
:104E700044F00804FFF706FF08B144F0100400F006
:104E800079FD022802D0032803D004E044F0200476
:104E900001E044F04004FFF7A9FD012845D00228B5
:104EA00045D02EA00190FCF753FD00900320FFF7A2
:104EB0009FF8FBF762FD82468B460220FFF798F8C9
:104EC000FBF75BFD814688460120FFF791F8FBF771
:104ED00054FD06460F4600E024E00020FFF788F866
:104EE000FBF74BFDDFF87CC002460B469CF800C088
:104EF000019825A9CDE90A040C91CDF824C00098A9
:104F00008DE8CC02CDE907B0CDE9058A2BAB16A21E
:104F100060210DA801F048FA00231A460DA968681F
:104F200004F076F92FB0BDE8F08F1AA0BAE71BA005
:104F3000B8E7000048BB0108BC000020645700200F
:104F40002573000080EE36005B2530326C753A2503
:104F500030326C753A2530326C755D004155544FD6
:104F6000000000000800002025732C252E31662C3F
:104F7000252E31662C252E30662C252E31662C25CB
:104F8000752C25752C25732C3078253034582C251C
:104F9000730D0A004D414E55414C00005354414E93
:104FA000444259009AB000244FF47A7501223BA183
:104FB0003B4803F06DFA020009D024B939A103205F
:104FC00003F020FF0124284604F06AF8EEE73DA133
:104FD000012003F017FF02E0284604F061F804F016
:104FE0000FF80028F8D03A4C3AA10120628803F06B
:104FF00009FF42F210794FF0000A3D4F00254FF4AF
:10500000C0684B4600226946606804F0A3F868B99E
:105010006846FBF733FA86B2781932466946FBF7E1
:10502000FFF9354405F160004045EAD9002DE4D090
:105030003048D0F80C022844B0F5002F05D92D488F
:1050400003F0CEF884F800A001E0207810B903F056
:10505000D7FFA8B184F801A0564618AB2A462449C8
:105060002448CDF860A003F06DFB020012D022A10D
:10507000032003F0C7FE1F4803F0B2F82670BCE718
:1050800060780028B9D122A1032003F0BBFE0120E3
:105090006070B2E7174803F0F9FAAEE7303A000063
:1050A0007C5700207364206D6F756E742066616993
:1050B0006C3A2025752C207265747279696E672EA2
:1050C0002E2E00007364206D6F756E746564000091
:1050D000BC0000207364206C6F672066696C653AC1
:1050E000204C4F47253035752E43535600000000A5
:1050F00064510020AC5900207364206C6F672077E6
:1051000072697465206661696C3A2025750000003B
:105110007364206C6F672072656F70656E206661C6
:10512000696C000001B582B0FF208DF80400642096
:105130000090012301AA02A90448FDF7EDFD10B17A
:105140000349012048709DF804000EBD6402002050
:105150003401002010B5044602E0FF20FFF7E2FF13
:10516000641EFAD210BD000001484068704700007C
:10517000340100202DE9F84F6420FCF72BFF5C4F31
:105180000020787001225B4C150329462046FDF76C
:10519000FCF85020FFF7DEFF002229462046FDF7ED
:1051A000F4F829462046FDF7EBF848B152A1032058
:1051B00003F028FE012229462046FDF7E6F818E014
:1051C00095220021402000F001FA064601222946DE
:1051D0002046FDF7DAF8012E0ED0787820B151A1E3
:1051E000032003F00FFE04E032465CA1032003F02D
:1051F00009FE0120BDE8F88F00222946A14620467D
:10520000FDF7C3F887224FF4D571482000F0DEF98E
:10521000012806D0012229464846FDF7B6F80120AC
:105220001EE000246E46FF20FFF77CFF3055641C13
:10523000E4B2042CF7D3012229464846FDF7A5F82D
:105240009DF80220012A03D19DF80300AA2806D068
:105250009DF8033048A1032003F0D4FDC9E70220E4
:105260003870B8464FF480164FF0804A4F460022FF
:1052700029463846FDF789F80120FFF76BFF012228
:105280000021772000F0A2F90446012809D898F8F7
:105290000000022814D000210122692000F096F9B4
:1052A0000446012229463846FDF76FF854B1761EB0
:1052B000DDD1224638A1032003F0A4FD022099E7A6
:1052C0005146E9E73D4801680A6822F040020A6059
:1052D00001680A6822F038020A600068016841F03B
:1052E0004001016000F0B2F8C8F80400002081E736
:1052F00034010020000C014073643A2043532070B5
:10530000696E20737475636B20484947482C20638D
:10531000617264206E657665722073656C65637476
:105320006564210073643A205350492068772066F1
:1053300061696C2C2048414C2072657475726E65F1
:1053400064206572726F72202853504932206E6F4C
:105350007420776F726B696E6729000073643A205E
:10536000434D4430206661696C2C2052313D3078C9
:10537000253032580000000073643A20434D443811
:10538000206563686F206661696C3A202530325869
:10539000202530325800000073643A2041434D44C8
:1053A00034312074696D656F75742C206C61737471
:1053B0002052313D30782530325800006402002000
:1053C0002DE9F041DFF880800C4605464FF4805609
:1053D000002231464046FCF7D8FF0120FFF7BAFE15
:1053E00001222146512000F0F1F838B10122314666
:1053F0004046FCF7CAFF0120BDE8F081FF20FFF71F
:1054000091FEFF28FAD0FE2806D001223146404600
:10541000FCF7BBFF0220EFE700244FF40077FF20EA
:10542000FFF780FE2855641CA4B2BC42F7D3FF20CE
:10543000FFF778FEFF20FFF775FE01223146404658
:10544000FCF7A3FF0020D7E7000C01402DE9FF4146
:10545000304E4FF48055002229463046FCF795FF28
:105460000120FFF777FE01220021492000F0AEF86D
:1054700030B9FF20FFF756FEFF28FAD0FE2808D0EB
:10548000012229463046FCF780FF002004B0BDE829
:10549000F08100246F46FF20FFF744FE3855641C5E
:1054A000E4B2102CF7D3FF20FFF73CFEFF20FFF7FC
:1054B00039FE012229463046FCF767FF9DF80000BF
:1054C0000221B1EB901F0DD89DF807009DF8081040
:1054D000000440EA01209DF809100843800200F50D
:1054E0008060D3E79DF806009DF807108007000D47
:1054F00040EA81009DF808109DF80A2040EA9110CA
:105500009DF80910401C8907490F41EAD211891CF6
:105510008840BBE7000C01402DE9F047DFF8A8A068
:1055200017460C4606464FF480590022494650461D
:10553000FCF72BFF0120FFF70DFE01222146522030
:1055400000F044F838B1012249465046FCF71DFFEF
:105550000120BDE8F08700254FF4007820E0FF200F
:10556000FFF7E0FDFF28FAD0FE2806D001224946C9
:105570005046FCF70AFF0220EBE70024FF20FFF76C
:10558000D1FD04EB4521641CA4B270544445F5D30D
:10559000FF20FFF7C7FDFF20FFF7C4FD6D1CADB274
:1055A000BD42DCD30120FFF7D5FD012200214C20B4
:1055B00000F00CF8FF20FFF7B5FD012249465046E8
:1055C000FCF7E3FE0020C4E7000C01407CB56D460B
:1055D0008DF80000080E8DF80100080C8DF802000F
:1055E000080A8DF8030001208DF8041000EB42003A
:1055F0008DF805000024285DFFF794FD641CE4B2DB
:10560000062CF8D30024FF20FFF78CFD010603D5FC
:10561000641CE4B2082CF6D37CBD00002DE9F041F7
:10562000DFF898800C4606464FF480550022294644
:105630004046FCF7AAFE0120FFF78CFD012221461F
:105640005820FFF7C3FFC0B9FE20FFF76BFD002411
:10565000EF10305DFFF766FD641CA4B2BC42F8D3C6
:10566000FF20FFF75FFDFF20FFF75CFDFF20FFF746
:1056700059FD00F01F00052807D0012229464046A9
:10568000FCF783FE0120BDE8F0814FF4801401E0B7
:10569000641E0BD0FF20FFF745FDFF28F8D1012243
:1056A00029464046FCF771FE0020ECE7012229461E
:1056B0004046FCF76AFE0220E5E70000000C0140CE
:1056C0002DE9F04115460E46074600240AE031193F
:1056D00007EB4420FFF7A2FF10B10120BDE8F081E5
:1056E000641CA4B2AC42F2D30020F7E7F8B515462B
:1056F0000E460B46009204460122022100F010F8EB
:1057000040B93346002280212046009500F008F879
:10571000002804D0606D40F0200060650320F8BDD3
:105720002DE9F8431E46914688460446089DFCF73D
:1057300031FE401B351AFCF72DFE07462548006850
:10574000C0F3CB30684338E0701C37D0FCF722FE42
:10575000C01BA84203D215B1009860B32CE02068AA
:10576000416821F0E00141606068B0F5827F0BD1B3
:10577000A068B0F5004F02D0B0F5806F04D120686A
:10578000016821F040010160A06AB0F5005F09D115
:105790002068016821F4005101602068016841F42B
:1057A00000510160012084F85100002084F850006D
:1057B0000320BDE8F8830025401E00902068816822
:1057C00038EA010004D000214945BDD10020F0E7AE
:1057D0000121F9E72C000020F0B5A1B005464AF2FE
:1057E000A550ADF800002248002401260E94ADF823
:1057F00008608068019003A80746FFF7FDF82C2198
:105800003846FBF77DFFADF8020072B6FCF792FC5C
:105810000F94CDE911560EA90FA8FCF7EDFB0E98D9
:10582000401C05D0FCF73CFC62B612A10E9A19E0B0
:105830006E46002405EB440136F8142000230120B5
:10584000FCF738FC641C1C2CF4D3FCF729FC62B672
:1058500013A92846FFF71CFA10B1012021B0F0BDB2
:105860002A460BA1032003F0CDFA0020F6E7000042
:10587000DC0000204E56532065726173652066611E
:10588000696C6564206174203078253038580000D8
:105890004E56532073617665206661696C6564209D
:1058A0006174203078253038582C206B6565702065
:1058B0006F6C6420726567696F6E00000020064A95
:1058C000014600BF22F81010401CC0B20828F9D3CE
:1058D0000248017070470000806000203C010020F9
:1058E00070B505461E48FCF733FA0A211C48FCF740
:1058F00091F91B48FCF7CEF81B4C1A4E217826F87C
:1059000011001748FCF784FA20780022401CC0B22E
:105910002070082800D322700020014636F811308C
:10592000491CC9B218440829F8D3C0F3CF00B0F518
:105930007A6F01D32A6011E040F2DC510B4C8842AF
:1059400001D82C600AE0C0F57A60FAF7B5FF084983
:10595000FAF74FFE2146FAF71AFE2860002070BDC4
:1059600034020020806000203C0100200000C8427A
:1059700000401C45014800787047000024010020C9
:1059800003480021017081804170817070470000E0
:105990002401002004480078022803D0032801D005
:1059A000002070470120704724010020FFF7E8BF66
:1059B00070B51E4C064601202178002531B1012921
:1059C0000CD0022923D003292ED12CE01E2E1CD965
:1059D0002070FCF737FAA060A58016E01E2E08D9CB
:1059E000A088401CA080FCF72DFAA168401A052869
:1059F00001D3257009E0A0881E2806D3607808B17D
:105A0000032000E0022020700CE0A6700CE0A188CA
:105A1000491C89B2A180642905D360702070FCF70D
:105A200011FAA060A580A570A07870BD24010020A7
:105A300086B000224FF480712548FCF7A6FC25A112
:105A4000012003F0DFF9FEF7D7F9FEF7D1FBFBF7F2
:105A500043FDFBF701FEFFF731FFFCF7F9F9FFF714
:105A60008FFFFBF767FEFEF781FB232003F018FB97
:105A700002A8FBF701FE0298FAF77FFF02460B46E9
:105A800016A1012003F0BEF903A8FFF729FF039830
:105A9000FAF773FF02460B4613A1012003F0B2F997
:105AA00005A904A8FBF754FD0598FAF766FF04461C
:105AB0000D460498FAF761FF02460B460EA101203D
:105AC000CDE9004503F09EF9642003F0E9FAFBE715
:105AD0000008014072756E696E6700004C69676866
:105AE000743A202566200A004D6F697374757265DB
:105AF0003A202566200A000054656D706572617455
:105B00007572653A2025662C2048756D6964697444
:105B1000793A202566200A000A4C4FF0FF354FF4F1
:105B2000FA762946606903F0A7FBFEF777FA606909
:105B300003F0FFFBFBF712FFFFF744F9304603F0D9
:105B4000AFFAEEE70800002003F0CEFA4FF00009AC
:105B500007464C464D46FEF761FFFEF785FADFF833
:105B60003081CB46DFF82CA104F058FBFEF73EFF56
:105B70000646FFF73DF8FEF7C5FAFEF7A9FDA64277
:105B80000CD03446FFF7AAF84148FEF72CFE012E50
:105B900026D0022E28D040A0FFF7E6F846B3012E0B
:105BA00008D000BF8AF800B00020FDF7EFFE00200B
:105BB000FFF760F89AF80000FFF7FAFEFBF7BAFE6D
:105BC000FFF7E8FEFBF794FDFFF7D4FEA84259D09B
:105BD000054602284FD003284FD0002D4FD051E06A
:105BE00030A0FFF7C1F8E5E731A0FFF7BDF8D9E72E
:105BF00009F1010000F0FF09B9F1050F14D34FF0CE
:105C000000092F48FFF776F80120FFF75DF801281B
:105C100000D00020FDF7BAFE0220FFF755F801285A
:105C200000D00020FFF726F80020FEF7E1F9064635
:105C300010F1814F11D0FEF7A3FED8F80010FAF74B
:105C4000A3FC3146FAF7EAFE09D21148FEF7CBFD74
:105C50004FEA0B018AF80010ACE71E21FAE70C4866
:105C6000C8F80460FEF7C6FDD8F80800FAF758FE39
:105C70008AF800009EE713A002E015A000E019A03A
:105C8000FFF772F86437384603F017FA6CE7000044
:105C9000D85B0020080000204D4F44455F4155541B
:105CA0004F0000004D4F44455F4D414E55414C0063
:105CB0004D4F44455F5354414E444259000000004B
:105CC000F13F010846414E5F5354414C4C000000E7
:105CD00046414E5F5354414C4C5F534556455245E7
