:020000040800F2
:1000000060240020450100084D0100084F01000850
:1000100051010008530100085501000800000000CC
:100020000000000000000000000000005701000870
:1000300059010008000000005B010008B101000840
:100040005F0100085F0100085F0100085F01000810
:100050005F0100085F0100085F0100085F01000800
:100060005F0100085F0100085F0100085F010008F0
:100070005F0100085F0100085F0100085F010008E0
:100080005F0100085F0100085F0100085F010008D0
:100090005F0100085F0100085F0100085F010008C0
:1000A0005F0100085F0100085F0100085F010008B0
:1000B0005F0100085F0100085F0100085F010008A0
:1000C0005F0100085F0100085F0100085F01000890
:1000D0005F010008C50100085F0100085F0100081A
:1000E0005F0100085F0100085F0100085F01000870
:1000F0005F0100085F0100085F0100085F01000860
:100100005F0100085F0100085F0100085F0100084F
:100110005F0100085F0100085F0100085F0100083F
:100120005F0100085F0100085F0100085F0100082F
:10013000DFF80CD000F02AF800480047690C0008EE
:10014000602400200648804706480047FEE7FEE797
:10015000FEE7FEE7FEE7FEE7FEE7FEE7FEE7FEE777
:10016000C10100083101000840EA01039B0703D0E8
:1001700009E008C9121F08C0042AFAD203E011F8E6
:10018000013B00F8013B521EF9D27047064C074D67
:1001900006E0E06840F0010394E807009847103457
:1001A000AC42F6D3FFF7C8FF88130008A813000875
:1001B00002484168491C416070470000000000206F
:1001C000704700000B4810B5006880060ED50A483D
:1001D00001684368491CC1F30901064A121D99428E
:1001E00005D01268054B04681A55016010BD1068EF
:1001F00010BD0000003801400C0000201C00002051
:10020000BFF34F8F05480168054A01F4E0611143CF
:100210000160BFF34F8F00BFFDE700000CED00E071
:100220000400FA0502E008C8121F08C1002AFAD12A
:1002300070477047002001E001C1121F002AFBD166
:100240007047000030B50023064C07E0CD5C454008
:10025000EDB25B1C34F8155085EA10209342F5D3BB
:1002600030BD00001C040020C043704730B500239F
:10027000064C07E0CD5C4540EDB25B1C54F82550C0
:1002800085EA10209342F5D330BD00001C06002003
:1002900010B5002081B200224AF20103CC0702D03F
:1002A00083EA510100E04908521C082AF6D30B4AA0
:1002B0000B4B22F8101001460022CC0702D083EA33
:1002C000510100E04908521C082AF6D3054A42F8B9
:1002D0002010401CFF28DDD910BD00001C040020A8
:1002E0002083B8ED1C06002001491522FFF73CBF12
:1002F0000030000870B5064600F07CF80A4D28462C
:1003000000F02EF8040001D008A007E015223146C5
:10031000284600F041F8040002D00AA000F0D8F905
:1003200000F032F8204670BD003000084F54413ACA
:1003300020666C6167206572617365206661696C17
:100340000D0A00004F54413A20666C6167207072BC
:100350006F6772616D206661696C0D0A00000000B4
:1003600010B5084C216941F00201216160612069EA
:1003700040F04000206100F0F5F9216921F0020110
:10038000216110BD002002400248016941F0800156
:1003900001617047002002402DE9F04115460E46EC
:1003A0000746002412E0305D611CA94204D23119D5
:1003B000497840EA012101E040F47F41381900F01A
:1003C00009F810B10120BDE8F081A41CAC42EAD3C9
:1003D0000020F8E710B5064C226942F001022261C4
:1003E000018000F0BFF9216921F00101216110BDF8
:1003F00000200240034802494160034941607047C0
:100400002301674500200240AB89EFCDF0B5404C99
:10041000404887B0D4F8381200680025411A47F2E6
:10042000305081426ED96846FFF75EFF3A49009826
:1004300088420BD18DF80450ADF80750DDF811005B
:10044000401CCDF811006846FFF754FF33A000F0C0
:100450003FF9394908684006FCD5FFF7D1FE00BFD7
:1004600000F0F2F8002851DB617821B1012907D0B2
:10047000022909D10DE0AA2844D10120607041E091
:10048000552803D0AA283DD065703BE0022060705B
:1004900034E01F49B4F80C22891C5054B4F80C0203
:1004A000401C81B2A4F80C1205290BD1B4F8050048
:1004B000B0F5007F03D96570A4F80C5222E0083033
:1004C000A4F80E02B4F80E0281421BD3D0B1B4F8E6
:1004D0000520A11CA7184FF6FF70B7F80760521D42
:1004E000FFF7B0FE864208D1797A20460D2904D163
:1004F000B0F80E12A01C00F03DFE6570A4F80C527E
:10050000A4F80E5200F062F80028A9D107B0F0BD9F
:100510001C12002004000020534654424F54413A1C
:100520002074696D656F75742C20726F6C6C6261DC
:10053000636B2E2E2E0D0A00003801401249002256
:100540004128087011490A704A70A1F80C22A1F8DC
:100550000E2215D05FF0410081F81002412811D021
:100560000B4800BFE1E985020A480A814A81CA6056
:10057000A1F828280068C1E9082007A000F0A8B861
:100580004220E9E71048EDE7140000201C1200208B
:1005900000000208040000204F54413A20626F6FAF
:1005A000746C6F6164657220757067726164652038
:1005B0006D6F64652C2077616974696E6720686F60
:1005C00073742E2E2E0D0A000000010803480168E6
:1005D0004068081AC0F30900704700000C000020B2
:1005E0001548816941F004018161816941F48041CC
:1005F00081611248016821F0F0010160016841F059
:10060000B0010160016821F470610160016841F48A
:10061000806101600A4940F271200860091D42F2C0
:100620002C0008600749002081F8000405492020BB
:100630002139C1F800017047001002400408014050
:100640000838014025E000E0084908684A689042FF
:1006500002D14FF0FF30704705484A68805C4A6815
:10066000521CC2F309024A60704700000C000020CF
:100670001C00002030B5064B00221C1D05E01D6843
:100680002D06FCD5855C2560521C8A42F7D330BD0F
:10069000003801400A4908B501EB101200F00F00C4
:1006A00012788DF80020085C8DF8010020208DF86C
:1006B000020000208DF80300684600F009F808BD2C
:1006C00075130008014800F003B800007213000819
:1006D00010B5044604E001212046FFF7CBFF641C5F
:1006E00020780028F7D110BDFFF728FF084D094CEE
:1006F0004FF0A5370126207838B9D5F80008B84260
:1007000003D0267004A0FFF7E3FFFFF77FFEF2E7B8
:100710006014002000000020737461636B3A204F66
:10072000564552464C4F572120626F74746F6D20AE
:1007300063616E6172792064657374726F79656448
:100740000D0A00000168064A914204D1806810B188
:10075000B0F5C73F01D90020704701207047000065
:1007600049474F4D6FF07F40074901E0401E07D0D9
:10077000CA68D207FAD1C868400703D50420C86008
:100780000120704700207047002002402DE9F84307
:10079000814631480378012B5BD1022A59D3921E3E
:1007A00093B20C88B0F81C2200260125A2423AD14F
:1007B000B3F5807F06D8D0F81822D0F82C721A44EE
:1007C000BA4203D98DF80040200A38E000220AE03E
:1007D0008F18B0F83CCA02F50F788444BF78521CD9
:1007E0000CF8087092B29A42F2D3B0F83C1A19444D
:1007F00089B2A0F83C1AD0F818221A44C0F818227E
:10080000B0F81C325B1CA0F81C32B0F81E325B1C26
:10081000A0F81E32B1F5006F06D3501A00F078FC34
:100820000028CFD100E007D98DF80040200A8DF8CC
:1008300001008DF8026006E08DF80020100A8DF8A6
:1008400001008DF8025003236A464946832000F0D8
:1008500001FDBDE8F88300001C12002070B5374C84
:10086000054688B0207802280FD1002A0DD00878DC
:1008700094F810120226884209D08DF818600123DE
:1008800006AA2946862000F0E5FC08B070BD68463F
:10089000FFF72AFD8DF8046094F810028DF8060029
:1008A000D4F82C02CDF80900D4F83402CDF80D00AC
:1008B0000024ADF80740DDF81100401CCDF8110010
:1008C0006846FFF717FD06461DA0FFF701FF3046FB
:1008D000FFF7E0FE1EA0FFF7FBFE9DF80400FFF708
:1008E000D9FE1DA0FFF7F4FE9DF80600FFF7D2FE2B
:1008F0001BA0FFF7EDFEDDF80900C0F30740FFF78E
:10090000C9FEBDF80900C0F30720FFF7C3FE9DF83C
:100910000900FFF7BFFEFFF7D5FE8DF81840012351
:1009200006AA2946862000F095FC0FA0FFF7D0FE0E
:10093000144801684906FCD5FFF762FC1C12002030
:100940004F54413A20666C61672077723D00000089
:10095000207265713D000000206E65773D0000004B
:10096000206C656E3D0000004F54413A206578656B
:10097000637574652C207265626F6F742E2E2E0D58
:100980000A00000000380140F8B5134C05460E4639
:10099000207801281FD1022A1DD3B4F83C0A30B1B7
:1009A000D4F81812081A00F0B3FB002813D13288CB
:1009B000D4F82002904201D0C4F82022B4F81E02DC
:1009C0008DF80000000A8DF8010002236A462946CE
:1009D000842000F03FFCF8BD1C1200202DE9F84FE8
:1009E0000D4606464FF00209102A02D08DF80090FD
:1009F0002DE0286845494FF0010A884201D00220C5
:100A000022E0A868B0F5C73F01D903201CE04048A8
:100A10000078422815D03F4802688A4213D10179F4
:100A200042790904807941EA0221014328796A79EF
:100A3000000440EA0220AA791043884203D25046BB
:100A400002E03548E8E700208DF8000038B10123C6
:100A50006A463146822000F0FDFBBDE8F88FFFF7C3
:100A6000C9FCDFF8B880AA68D8F8141201F5007044
:100A700001F6FF111144CF0AFF02C40AE40205E0A7
:100A80002046FFF76DFC58B904F50064BC42F7D965
:100A9000444610222946D8F81402FFF77DFC10B115
:100AA000FFF772FCA2E7FFF76FFC102229461C48F3
:100AB000FFF75AFB0021C4F81812A4F81C12A4F87E
:100AC0001E12A4F83C1AD4F82C020123FF30000AAD
:100AD000C4F8200284F800A0C4F834128DF8001085
:100AE0006A463146822000F0B5FB0EA0FFF7F0FD0C
:100AF000B4F82002C0F30720FFF7CCFD94F82002E1
:100B0000FFF7C8FDFFF7DEFDA7E7000049474F4D9F
:100B10001400002000000108000002081C12002040
:100B2000401400204F54413A207374617274206164
:100B3000636365707465642C207061636B657473A6
:100B40003D0000002DE9F04F0F462E498346C1B00D
:100B50000878012853D1042A51D3801E00264FF46F
:100B600080798846EA46D1F82C5218E04C46A542D6
:100B700000D82C46D8F8142206F50071531800212D
:100B8000524604E013F801C002F801C0491CA1421A
:100B9000F8D322466946FFF769FB2D1B2644002D3A
:100BA000E4D1F9783D6861F31F65FFF75DFB04460A
:100BB000A54208D100208DF800010221C8F8344276
:100BC00088F8001015E001208DF800010EA0FFF755
:100BD0007FFD200EFFF75EFDC4F30740FFF75AFDCF
:100BE000C4F30720FFF756FDE0B2FFF753FDFFF710
:100BF00069FD012340AA5946852000F02BFB41B036
:100C0000BDE8F08F1C1200204F54413A20766572E7
:100C1000696679206661696C206C6F63616C3D0068
:100C200030B4D0F80022D0F804120C4B1C6824F425
:100C300000541C600A4C2023C4F8803100F5007079
:100C4000BFF34F8FBFF36F8F0023241F236172B652
:100C5000044B186082F3088830BC08470C38014008
:100C600004E000E008ED00E0AA48C8B0EFF3088116
:100C7000A94B00F50062521A9A604FF0A53200E0CD
:100C800004C08842FCD3A548016841F4803101606A
:100C900001688903FCD5A2490A6842F014020A607F
:100CA000A0494160016841F08071016001688901DB
:100CB000FCD5416841F0020141604168C1F3810106
:100CC0000229FAD1994C98482060FFF7E1FAFFF722
:100CD00087FC20684FF47A71B0FBF1F1491E4FF0A8
:100CE000FF384FF0000AB1F1807F0AD24FF0E020C8
:100CF00041618F4AF02182F8141DC0F818A0072125
:100D0000016162B68BA0FFF7E3FC8FA0FFF7E0FC68
:100D1000FFF7D8FC00F0D8FA6846FFF7E5FA8E48EE
:100D200000998E4E8E4F81425CD19DF804000228BE
:100D300058D19DF80600412816D0384683469DF8C4
:100D40000500412812D03846469086A0FFF7C0FC27
:100D50005846FFF7F7FC00287AD0DDF80940DDF8A7
:100D60000D00479000201DE03046E7E73046EBE7F6
:100D70004FF48075AC4200D825460BEB09010020EA
:100D800006AA01F5007102E00B5C1354401CA84256
:100D9000FAD32A4606A94046FFF768FA8046641B44
:100DA00009EB05008146002CE2D14046FFF75CFAD2
:100DB000479988426AD19DF806008DF805008DF8A4
:100DC00004A0ADF807A0DDF81100401CCDF811001B
:100DD0006846FFF78FFA6BA0FFF77AFC4FEA0B002B
:100DE000FFF71EFF5C480099814203D19DF8041073
:100DF00001295ED00099814263D19DF80500422807
:100E00005BD0344600D03E462046FFF79BFCD0B175
:100E100065A0FFF75DFC9DF8050042284FD065A056
:100E2000FFF756FC64A0FFF753FCBDF80700000A6B
:100E3000FFF730FC9DF80700FFF72CFCFFF742FCA2
:100E40002046FFF7EDFE204600F080FA38B100E0C2
:100E50001CE05DA0FFF73CFC2046FFF7E1FE64A02C
:100E6000FFF736FC3046FFF76DFC10B13046FFF758
:100E7000D7FE304600F06AFA28B168A0FFF728FCD8
:100E80003046FFF7CDFE9DF8050040E08DF804A048
:100E900040F20230ADF80700DDF81100401CCDF83B
:100EA00011006846FFF726FA66A0FFF711FC469886
:100EB00096E76FA0FFF70CFCE5E73C46A2E778A0B9
:100EC000AEE778A0FFF704FC3046FFF73BFC10B11B
:100ED0003046FFF7A5FE304600F038FA28B17AA078
:100EE000FFF7F6FB3046FFF79BFE3846FFF72AFC7C
:100EF00010B13846FFF794FE384600F027FA28B1C3
:100F00007AA0FFF7E5FB3846FFF78AFE4120FFF79E
:100F1000EBFB0000601C00200000002000100240DD
:100F20000020024000041D0000A24A041800002016
:100F30000FE000E00D0A4F544120426F6F7420769D
:100F4000312E302C200000006163746976652070BA
:100F50006172743D000000005346544200000108D5
:100F6000000002084F54413A207665726966792084
:100F70006E6577206669726D776172652E2E2E0D13
:100F80000A0000004F54413A207665726966792064
:100F90006F6B2C20626F6F74206E657720706172AA
:100FA000742E2E2E0D0A00004F54413A20706172AB
:100FB00074200000410000002076616C69642C20E0
:100FC0006661696C3D0000004F54413A206E6F200D
:100FD0006677206865616465722C206A756D702083
:100FE00061637469766520706172740D0A00000097
:100FF0004F54413A20616374697665207061727460
:1010000020696E76616C69642C20747279206F742B
:1010100068657220706172740D0A00004F54413A85
:10102000206E6F206677206865616465722C206A87
:10103000756D70206F7468657220706172740D0A2E
:10104000000000004F54413A2076657269667920AD
:101050006661696C2C20726F6C6C6261636B206FCF
:101060006C6420706172742E2E2E0D0A0000000038
:101070004F54413A207570677261646520726571E2
:101080007565737465642C20656E74657220757067
:101090006772616465206D6F64650D0A0000000071
:1010A000420000004F54413A20666C616720617233
:1010B000656120656D7074792C2066697273742087
:1010C000626F6F740D0A00004F54413A206E6F201A
:1010D0006677206865616465722C206A756D702082
:1010E0007061727420410D0A000000004F54413AB3
:1010F000206E6F206677206865616465722C206AB7
:10110000756D70207061727420420D0A000000003D
:101110002DE9F041154C05460021B4F83C0AA4F530
:101120000062FF234FF40066884204D9671897F8DD
:101130003C72575400E05354491CB142F4D3FFF7BA
:1011400059F9D4F8140205F50075284432460849C7
:10115000FFF722F920B1FFF717F90120BDE8F08170
:10116000FFF712F90020A4F83C0AF7E71C12002050
:101170001C0A002038B510F8015B30F8024B30F83B
:10118000022B01462D4800682D4B082DC3F838026C
:1011900026D2DFE805F02504262B30353A3F2948D2
:1011A00021460378422B0ED0274800228DF80020DC
:1011B0000468264DAC4208D102798DF801204079AF
:1011C0008DF8020005E02248EFE78DF801208DF848
:1011D00002208DF8033004236A46812000F03AF89B
:1011E00038BD2046BDE83840FFF7F8BB2046BDE8D3
:1011F0003840FFF7CBBA2046BDE83840FFF7C4BB04
:101200002046BDE83840FFF79DBC2046BDE8384089
:10121000FFF724BBB3F81E028DF80000000A8DF81A
:101220000100B3F820028DF80200000A8DF80300D7
:10123000042321466A468720D0E7000004000020EE
:101240001C120020140000200000010849474F4DE7
:101250000000020830B5ADF5037DAA248DF80040EA
:1012600055248DF801408DF80200080A8DF804001D
:10127000180A8DF805306D468DF803108DF80600BC
:10128000072453B14AB1002005E0115C2955641CC4
:10129000401CA4B280B29842F7D35A1D4FF6FF709B
:1012A000A91CFEF7CFFF2855641CA1B2000A6854A0
:1012B000491C88B20D212954401C81B26846FFF7B1
:1012C000D9F90DF5037D30BD144810B500F5006166
:1012D0004FF0A53200E0001D0368934201D188421F
:1012E000F9D30C1A0EA0FFF7F3F9C4F30720FFF7A8
:1012F000D1F9E0B2FFF7CEF90DA0FFF7E9F9114CF3
:101300002089C0F30720FFF7C5F9207AFFF7C2F95B
:10131000BDE810400CA0FFF7DBB90000601C002006
:10132000737461636B3A20757365643D30780000B7
:101330002F3078303830302028696E69745F7370D0
:101340003D30780000000020290D0A0000F50071F2
:101350000A684968A2F10052B2F5404F05D88142AF
:1013600003D300F5C830814201D900207047012025
:1013700070470D0A00303132333435363738394151
:101380004243444546000000A81300080000002026
:101390001C00000024020008C41300081C000020E8
:1013A0004424000034020008000000000000000097
:1013B00000000000000000000000000041000000EC
:0413C00000127A009D
:0400000508000131BD
:00000001FF
